:020000040800F2
:100000005804002045010008C70B0008DB0A00085F
:10001000C50B0008F5080008F112000800000000F8
:10002000000000000000000000000000610C00085B
:10003000F708000800000000410C00087D0E0008D1
:100040005F0100085F0100085F0100085F01000810
:100050005F0100085F0100085F0100085F01000800
:100060005F0100085F010008090900085F0100083E
:100070005F0100085F0100085F0100085F010008E0
:100080005F0100085F0100085F0100085F010008D0
:100090005F0100085F0100085F0100085F010008C0
:1000A0005F0100085F0100085F010008D10E000831
:1000B0005F0100085F0100085F0100085F010008A0
:1000C0005F0100085F0100085F0100085F01000890
:1000D0005F0100085F0100085F0100085F01000880
:1000E0005F0100085F0100085F0100085F01000870
:1000F0005F0100085F0100085F0100085F01000860
:100100005F0100085F0100085F0100085F0100084F
:100110005F0100085F0100085F0100085F0100083F
:100120005F0100085F0100085F0100085F0100082F
:10013000DFF80CD000F072FA0048004739130008CD
:10014000580400200648804706480047FEE7FEE7BF
:10015000FEE7FEE7FEE7FEE7FEE7FEE7FEE7FEE777
:10016000810E00083101000880EA010210B502F09A
:100170000043400022D04A001FD0010E01EB126163
:10018000C0F35600C2F3560240F4000042F40002ED
:10019000A0FB022000047F39140400D0401C50EA68
:1001A000124001D44000491EC2B20C0604EBD0102C
:1001B000401C4008802A02D003E0002010BD20F03F
:1001C0000100002900DA0020184310BD30B480EA95
:1001D000010202F0004530F0004221F0004013D04F
:1001E00090B1C30DD40DC2F31601C0F31600E41A8A
:1001F00041F4000140F400027D34914201D3641CBB
:1002000000E04900002C02DA30BC002070474FF4B7
:1002100000000023914201D3891A034340084FEAAA
:100220004101F7D151B1914202D14FF0004105E0B7
:1002300002D24FF0010101E06FF0010103EBC45065
:10024000284430BC00F056B92DE9FE4F81EA030482
:1002500004F0004421F0004100944FF0000B23F023
:10026000004350EA01045ED052EA03045BD0C3F3BA
:100270000A54C1F30A552C44A4F2F3340194A0FBB0
:100280000254C1F3130141F48011C3F3130343F487
:10029000801301FB024400FB034E840A970A44EAE0
:1002A000815447EA8357A4FB076802958D0A05FB32
:1002B00007854FEA932C04FB0C542705029D4FEA57
:1002C000065847EA1637B5EB08056EEB070C870EA4
:1002D000920E47EA811742EA8312A7FB0201B6EBAE
:1002E0000B0164EB00042B0D43EA0C335E1844EB66
:1002F0001C50DA465146E7FB0201C5F313044FEAEE
:100300000B3343EA14534FEA0432019C43EA0603D9
:10031000A4F10C040294009CCDE900B400F030F983
:1003200003B0BDE8F08F00200146F9E72DE9F04D5C
:1003300081EA030404F0004B21F0004514464FF01D
:10034000000A23F0004150EA050220D054EA0102DD
:100350001DD0C5F30A570246C5F31303C1F31300BA
:10036000C1F30A5640F4801543F48013A7EB060846
:10037000101BD64608F2FD3873EB050002D308F1D6
:10038000010801E092185B41B8F1000F03DA002088
:100390000146BDE8F08D00204FF4801106468446EA
:1003A0000EE0171B73EB050705D3121B63EB050368
:1003B00006434CEA010C49084FEA300092185B41B1
:1003C00050EA0107EDD152EA030012D082EA04009C
:1003D00083EA0501084305D0101BAB4106D2012278
:1003E000002306E000224FF0004302E06FF001021C
:1003F00053101AEB06004CEB085110EB0A0041EBCE
:100400000B01BDE8F04D00F0ACB870B521F0004331
:1004100003430CD0C1F30A550024D5EB040564EB6B
:100420000403D617AD1AB34102DB0020014670BDAC
:10043000201841EB025170BDC10F80EAE070084402
:10044000CA079623002100F05EB8962300221146C9
:1004500000F059B80EB540F2334102910021CDE9C8
:1004600000110A460B4600F08BF803B000BD20F0E7
:100470000040C10DC0F3160040F400007F2901DAEE
:1004800000207047962903DCC1F19601C8407047EF
:1004900096398840704770B5C1F30A5201F00045A3
:1004A0000024C1F3130140F2FF3341F480119A425A
:1004B00001DA002070BD40F233439A42A2F2334287
:1004C00003DC524200F006F800E090402C43F1D0EB
:1004D000404270BD202A04DB203A21FA02F00021BC
:1004E000704721FA02F3D040C2F120029140084344
:1004F000194670470029A8BF7047401C490008BF33
:1005000020F00100704710B4B0FA80FC00FA0CF043
:1005100050EA010404BF10BC704749B1CCF120047B
:1005200021FA04F411FA0CF118BF01212143084308
:10053000A3EB0C01CB1D4FEA00614FEA102042BF34
:10054000002010BC704700EBC35010440029A4BF2A
:1005500010BC7047401C490008BF20F0010010BCCF
:10056000704710B5141E73F1000408DA401C41F105
:10057000000192185B411A4301D120F0010010BD27
:100580002DE9F04D92469B4611B1B1FA81F202E09D
:10059000B0FA80F22032904600F052F804460F463E
:1005A00040EA0A0041EA0B0153465A46084313D079
:1005B000114653EA010019D0C8F140025046FFF736
:1005C00089FF05460E4650465946424600F038F827
:1005D000084305D0012004E020463946BDE8F08DEF
:1005E0000020054346EAE0762C4337430A9863052A
:1005F000E40AA0EB08000022FD0A44EA47540A304E
:1006000002D500200146E9E7010510196941DDE93D
:10061000084500196941BDE8F04DA2E7064C074DB9
:1006200006E0E06840F0010394E8070098471034C2
:10063000AC42F6D3FFF780FD90130008B01300081A
:10064000202A04DB203A00FA02F100207047914092
:10065000C2F1200320FA03F31943904070470000D1
:1006600010B5294C0020E17907291DD2DFE801F0FF
:100670001C041C1D2D1C4600217A002914D1A179CF
:1006800089B10321E171A071D4E90610081AA16AA9
:10069000E36A0844216A4843D4E90312BDE81040E4
:1006A000404200F033B8E07110BD207A0028FBD141
:1006B00000F092F9206AD4E90312C0EBC070236BFA
:1006C00000F024F80420E07110BD217A0029FBD14C
:1006D000A17989B10621E171A071D4E90601401A1E
:1006E000616AE36A0844216A4843D4E90312BDE819
:1006F0001040404200F00AB8E07110BD217A002994
:10070000FBD1E071A06110BD040000202DE9FE4F77
:1007100004460E4691469B466E486F4F0125DFF812
:10072000BCA14FF00008002C1ADA082100F0C3F930
:1007300038B1787810B1FD70BDE8FE8F87F803807E
:1007400003E0787850B187F803808AF801504FF4BD
:100750000051634800F0BDF9644217E0FD70EBE71B
:10076000042100F0A8F930B1387808B1BD70E3E792
:1007700087F8028003E03878A0B387F802808AF80F
:1007800001804FF40051564800F0A5F9012C2CD0FF
:10079000002CD1D042F21070B0FBFBF04008CAF838
:1007A00010005048B0FBF6F000F0B2FDFFF752FE2B
:1007B00000224D4BFFF748FD00224C4BFFF7B6FDE2
:1007C0004FF0FF32FFF721FEFFF765FECAF8040085
:1007D00002900BFB0BFB7000BBFBF0FBBBF1000FAF
:1007E0001FD020E0FFE7BD70A6E74FF0FF30CAF84A
:1007F000140002208AF800004FF47A70CAF804004E
:100800003B4C6421204600F023FD6421204600F08B
:100810001DFD3D7203B02046BDE8F04F012100F000
:10082000AFBC4FF0010B06EB0900A04212D9FFF755
:100830000CFE00904846FFF708FE0099FFF7C6FC43
:1008400001902046FFF7F8FD0199FFF78DFCFFF7B7
:100850000EFE03E0B4FBF0F000FB09F000B901204C
:10086000584503D8001BCAF80C0006E00BFB06FB3A
:10087000BBFBF9F04042CAF80C00DAF80C0018B9DA
:100880004FF0FF30CAF80C00DAF80C002044CAF828
:1008900008000299DAF81000814205DCCAF8040069
:1008A00003208AF8000001E08AF80050CAF814809A
:1008B0003D720F4C6421204600F0CAFC64212046A2
:1008C00000F0C4FC03B02046BDE8F04F012100F069
:1008D00057BC000000100140040000204000002030
:1008E000000C014080841E000068BA4000408F4028
:1008F000002C0140FEE770470248016821F010011A
:10090000016070470004014010B5102000F01AF893
:1009100001280ED107488169C16101218171027AE4
:1009200002B10171102000F007F8BDE81040FFF798
:10093000E3BF10BD040000200149086070470000BB
:100940001404014001460020054A12680A40044B85
:1009500014331B680B4202D0002A00D001207047DC
:100960000004014030B51B4A83790168002B2AD06E
:1009700013688B431360111D0B680468A3430B605D
:10098000017911440B68046823430B60114C08344F
:100990002168036899432160231D19680568A943EC
:1009A00019604179102905D011440A680068024392
:1009B0000A6030BD2168026811432160196800682F
:1009C0000143196030BD0079104402688A43026017
:1009D00030BD0000000401400248016841F01001F0
:1009E000016070470004014010B58A07120F0F2301
:1009F000934021F00304054921448C689C438C609A
:100A00008B68904003438B6010BD000000000140E4
:100A10002DE9F0410022CC7804F00F03E40601D563
:100A20008C7823430C784FF00F0714F0FF0F4FF032
:100A3000010C1CD005680CFA02F40E882640A64270
:100A400011D1960007FA06F825EA080503FA06F818
:100A500048EA0505CE78282E02D0482E02D002E0C2
:100A6000446100E00461521C082AE4D305600A884E
:100A7000FF2A1ED94568002202F108060CFA06F486
:100A80000E882640A64210D1960007FA06F825EAFD
:100A9000080503FA06F848EA0505CE78282E00D1A5
:100AA0004461CE78482E00D10461521C082AE3D359
:100AB0004560BDE8F0810246002092680A4200D0FD
:100AC0000120704702460020D2680A4200D001206F
:100AD00070474161704701617047FEE710B50C4CEB
:100AE00001212046FFF7E7FF012807D100F032F887
:100AF00001212046FFF7DFFF012801D0002010BDB3
:100B000001212046FFF7D7FF0128F9D0012010BDB1
:100B10000008014008B50121142000F093F80120DD
:100B2000ADF8000003208DF8020004208DF80300CA
:100B300069460648FFF76CFF4FF40050ADF800001F
:100B400069460348FFF764FF08BD00000008014044
:100B50000010014000214FF47A720020401C9042A6
:100B6000FCD3491C6429F8D3704700002DE9F041FB
:100B7000124F04213846FFF79EFF0125104C002636
:100B800028B1207808B1A57004E0A67002E02078B2
:100B900050B1A67008213846FFF78DFF40B160784C
:100BA00020B1E570BDE8F081A570F3E7E670F9E7E4
:100BB000607808B1E670F5E7E570F3E700100140F2
:100BC00004000020FEE7704770B50F23C2780126AD
:100BD0000178002A1ED0144A126802F4E062C2F5BD
:100BE000E062120AC2F10404D3404578A54082783D
:100BF0001A402A43120101F1E02181F80024007813
:100C000000F01F018E404009800000F1E020C0F894
:100C1000006170BD01F01F0086404809800000F1AE
:100C2000E020C0F8806170BD0CED00E0024908438F
:100C300002490860704700000000FA050CED00E072
:100C400070470000054A002903D091690143916172
:100C50007047916981439161704700000010024024
:100C6000704700F001B800000CB50022019200921C
:100C70002748016841F4803101604FF4A0630168A6
:100C800001F4003100910199491C0191009911B9B9
:100C900001999942F3D10168890302D5012100919C
:100CA00000E000920099012930D11A490A6842F007
:100CB00010020A600A6822F003020A600A6842F021
:100CC00002020A604168416041684160416841F444
:100CD00080614160416821F47C114160416841F4C8
:100CE000E8114160016841F080710160016889018B
:100CF000FCD5416821F003014160416841F00201E7
:100D000041604168C1F381010229FAD10CBD0000A4
:100D100000100240002002401CB504210220FFF711
:100D200063FE1020009000208DF804000C208DF848
:100D3000050001208DF806006846FFF713FE1CBD74
:100D400038B501211D20FFF77DFF4FF48070ADF80D
:100D5000000014248DF8034003208DF8020069463A
:100D60001348FFF755FE4FF40050ADF800008DF822
:100D7000034069460F48FFF74BFE0420ADF8000022
:100D800048208DF803000C4C69462046FFF740FED2
:100D90000821ADF8001069462046FFF739FE102102
:100DA000ADF8001069462046FFF732FE38BD00005E
:100DB00000080140000C01400010014038B54FF41C
:100DC000A060FFF733FF1B208DF8000002208DF894
:100DD000010000258DF8025001248DF8034068467B
:100DE000FFF7F2FE0A208DF800008DF801408DF823
:100DF00002508DF803406846FFF7E6FE38BD00005C
:100E000030B587B00121C802FFF71CFFFFF798FF3C
:100E1000FFF7D4FFFFF780FF4FF6FF70ADF8140027
:100E20002320ADF810000024ADF81640ADF81240B4
:100E30008DF81840104D04A9284600F00BFA102137
:100E4000ADF800100121ADF802106421ADF80610D4
:100E5000ADF80840A915ADF80C106946284600F019
:100E6000B1F90121284600F085F901220221284626
:100E700000F09EF907B030BD002C01407047000023
:100E800010B50F48016841F00101016041680D4A49
:100E90001140416001680C4A11400160016821F471
:100EA00080210160416821F4FE0141604FF41F017F
:100EB0008160FFF7D6FE05494FF00060086010BD65
:100EC000001002400000FFF8FFFFF6FE08ED00E012
:100ED0002DE9F05FDFF88C820221404600F05CF9DA
:100EE00038B10221404600F048F90221404600F0A6
:100EF00041F99D4EB08881B2404600F0A9F9B18811
:100F0000404689B200F0A2F9307880B1974F4FF493
:100F1000807529463846FFF7D5FD20B12946384669
:100F2000FFF7D7FD03E029463846FFF7D4FD904F81
:100F3000787A401CC1B2797202297BD100257D727A
:100F4000317861B14FF0020B41F288324FF0010C61
:100F500001290DD002296ED0032908D16CE07D63F0
:100F6000BD630021404600F00BF93D727D71F6E053
:100F7000D7F8348008F10108C7F834807178D1B10E
:100F8000B869401EB8617469641C74617068BB6B99
:100F90000CEB840903EB400393FBF9F4041BA4B2AC
:100FA00093FBF9FA09FB1A33BB63B368434516D9BF
:100FB0003B79A3B903E0B869401CB861E3E7BB78AB
:100FC00003B161B1FB780BB1012908D03069A042AF
:100FD00004DB7C8184B2BD6303203070BFE03B79C9
:100FE0006BB13D71796992FBF1F142F2107251439C
:100FF00091FBF0F191FBF0F04042706108E0BB78AA
:1010000003B141B1FB780BB1012904D0F0687061E4
:1010100086F800B0A3E0796992FBF1F142F2107218
:10102000514391FBF0F191FBF0F04042706187F881
:1010300005C0EDE794E049E0796B491C796370786D
:1010400050B1BB695B1EBB61338A9CB2B3688B42F3
:101050000DD9397959B903E0BB695B1CBB61F3E772
:10106000B97801B118B1F97879B3012877D1397914
:1010700071B13D71786992FBF0F142F21070414319
:10108000706891FBF0F191FBF0F04042706108E074
:10109000B97801B148B1F97809B1012805D0F068F3
:1010A00070617C8986F800B059E0786992FBF0F1B4
:1010B00042F210704143706891FBF0F191FBF0F047
:1010C0004042706187F805C0EBE748E0786B401C50
:1010D0007863717821B3B869401EB86173695B1C8D
:1010E00073617068BC6B0CEB830304EB400898FBE6
:1010F000F3F4041BA4B298FBF3F903FB1983BB635D
:101100003B798BB13D71796992FBF1F142F210723A
:10111000514391FBF0F191FBF0F0404270611AE015
:10112000B869401CB861D9E77B79A3B9BB7803B132
:1011300019B1FB787BB101290DD1796992FBF1F1ED
:1011400042F21072514391FBF0F191FBF0F04042FA
:10115000706187F805C07069002800DB3570746025
:10116000BDE8F09F002C0140400000200008014035
:1011700004000020C94301827047C94301827047BF
:10118000002904D0018841F00101018070470188E5
:1011900021F001010180704702460020138A0B40B4
:1011A00092890A40002B02D0002A00D0012070470B
:1011B000002A03D082890A438281704782898A4348
:1011C0008281704730B5028C22F001020284028CC9
:1011D0008388048B24F0700424F003050C882C43CE
:1011E00022F002020D8915434A882A43124DA84273
:1011F0000BD0124DA84208D0114DA84205D0114D78
:10120000A84202D0104DA8420FD122F008054A8909
:101210002A4322F004058A882A4323F4807323F4A6
:1012200000738D891D43CB892B4383800483C98838
:101230008186028430BD0000002C01400034014052
:101240000040014000440140004801408185704752
:101250008186704730B502881B4C1C4DA0420DD0D2
:10126000A8420BD0B0F1804F08D0194B984205D05E
:10127000184B984202D0184B984203D122F07003C9
:101280004A881A43154B984206D0154B984203D012
:1012900022F44073CA881A4302808A8882850A88A9
:1012A0000285A0420AD0A84208D00E4A904205D03A
:1012B0000D4A904202D00D4A904201D1097A01862E
:1012C0000121818230BD0000002C0140003401402A
:1012D0000004004000080040000C004000100040E6
:1012E000001400400040014000440140004801401B
:1012F000FEE702E008C8121F08C1002AFAD17047B1
:101300007047002001E001C1121F002AFBD1704785
:10131000024600204FF080414318934202D8D21A6F
:10132000012300E00023400803B108448908F3D1F9
:10133000904200D2401C7047FFF7ECFBFFF760FDC6
:101340000E494FF4004008800D4E0E4F0E4D0F4CCD
:10135000FFF70CFCFFF784F9FFF7C0FB0128F7D17A
:1013600030683B68C0EB004101EB804101EBC030CD
:101370002A682168FFF7CAF9EAE70000442C014017
:101380002400002000000020140000201000002095
:10139000B01300080000002040000000F212000816
:1013A000F013000840000020180400000213000899
:1013B00032000000000000000000000300000000F8
:1013C0000500000005000000C8000000000000004B
:1013D00000000000010000000000000000190000F3
:1013E000C8000000640000000000000000000000D1
:0400000508000131BD
:00000001FF
