:020000040800F2
:1000000090060020CD010008BB030008B3030008E0
:10001000B7030008870200085D0600080000000022
:10002000000000000000000000000000E1030008E4
:100030008B02000800000000BD030008CD0400088A
:10004000E7010008E7010008E7010008E7010008F0
:10005000E7010008E7010008E7010008E7010008E0
:10006000E7010008E7010008E7010008E7010008D0
:10007000E7010008E7010008E7010008E7010008C0
:10008000E7010008E7010008E7010008E7010008B0
:10009000E7010008E7010008E7010008E7010008A0
:1000A000E7010008E7010008E7010008E701000890
:1000B000E7010008E7010008E7010008E701000880
:1000C000E7010008E7010008E7010008E701000870
:1000D000E7010008E7010008E7010008E701000860
:1000E000E7010008E7010008E7010008E701000850
:1000F000E7010008E7010008E7010008E701000840
:10010000E7010008E7010008E7010008E70100082F
:10011000E7010008E7010008E7010008E70100081F
:10012000E7010008E7010008E7010008E70100080F
:1001300000F002F800F03AF80AA090E8000C8244BF
:100140008344AAF10107DA4501D100F02FF8AFF29C
:10015000090EBAE80F0013F0010F18BFFB1A43F0A5
:10016000010318475005000070050000103A24BF35
:1001700078C878C1FAD8520724BF30C830C144BF0C
:1001800004680C607047000000230024002500264E
:10019000103A28BF78C1FBD8520728BF30C148BFEA
:1001A0000B6070471FB51FBD10B510BD00F031F8D2
:1001B0001146FFF7F7FF00F053FA00F04FF803B4D1
:1001C000FFF7F2FF03BC00F057F800000948804732
:1001D00009480047FEE7FEE7FEE7FEE7FEE7FEE729
:1001E000FEE7FEE7FEE7FEE704480549054A064B41
:1001F00070470000C505000831010008900000208C
:100200009006002090020020900200207047704766
:100210007047754600F02CF8AE4605006946534617
:1002200020F00700854618B020B5FFF7DDFFBDE8D8
:1002300020404FF000064FF000074FF000084FF04D
:10024000000B21F00701AC46ACE8C009ACE8C009DE
:10025000ACE8C009ACE8C0098D46704710B504464B
:10026000AFF300802046BDE81040FFF7A8BF0000B4
:10027000004870473000002001491820ABBEFEE75F
:1002800026000200704700BFFEE770472DE9F041ED
:10029000024600250026002000230024002791F8B4
:1002A00003C00CF00F0591F803C00CF0100CBCF16A
:1002B000000F03D091F802C04CEA050591F800C088
:1002C000BCF1000F31D0146800202BE04FF0010C7E
:1002D0000CFA00F3B1F800C00CEA03069E4220D1EC
:1002E00083004FF00F0C0CFA03F7BC4305FA03FC34
:1002F0004CEA040491F803C0BCF1280F06D14FF07A
:10030000010C0CFA00FCC2F814C00AE091F803C01A
:10031000BCF1480F05D14FF0010C0CFA00FCC2F8FB
:1003200010C0401C0828D1D31460B1F800C0BCF143
:10033000FF0F34DD546800202EE000F1080C4FF070
:10034000010808FA0CF3B1F800C00CEA03069E425B
:1003500021D183004FF00F0C0CFA03F7BC4305FAD0
:1003600003FC4CEA040491F803C0BCF1280F05D14A
:1003700000F1080C08FA0CF8C2F8148091F803C0D8
:10038000BCF1480F07D100F1080C4FF0010808FA42
:100390000CF8C2F81080401C0828CED35460BDE889
:1003A000F0810146C86880B2704741617047C16002
:1003B000704700BFFEE700BFFEE7704770470000D0
:1003C00029B1064A92690243044B9A6104E0034A48
:1003D00092698243014B9A6170470000001002400D
:1003E000704710B500F002F810BD00000CB50020F9
:1003F000019000903348006840F480303149086033
:1004000000BF3048006800F4003000900198401CA4
:100410000190009818B90198B0F5A06FF1D1294862
:10042000006800F4003010B10120009001E00020CD
:1004300000900098012843D12348006840F0100044
:10044000214908600846006820F00300086008465B
:10045000006840F0020008601A4840681949486086
:100460000846406848600846406840F4806048603C
:100470000846406820F47C1048600846406840F414
:10048000E81048600846006840F08070086000BFCF
:100490000C48006800F000700028F9D00948406856
:1004A00020F00300074948600846406840F0020019
:1004B000486000BF0348406800F00C000828F9D1EC
:1004C0000CBD0000001002400020024010B51A4888
:1004D000006880B319480078401C18490870084625
:1004E000007817490978884218D101211548007809
:1004F00000F0BCF813480078401C124908701248FC
:100500000088401C104908800E480078082802D155
:1005100000200C4908700020084908700A4800882B
:10052000B0F5805F07D100200749088002480068C5
:10053000401E0149086010BD180000202C0000205A
:10054000140000202D0000202E00002030B51A4895
:10055000006842F21072B0FBF2F1B1F1807F01D37A
:1005600001201DE021F07F40401E4FF0E02250614D
:1005700050170F22002807DA13071D0E0F4B00F04B
:100580000F04241F1D5503E013071C0E0C4B1C54B5
:1005900000BF00204FF0E022906107201061002092
:1005A00008B100BFFEE74FF0E020006940F0010015
:1005B0004FF0E021086130BD0000002018ED00E0A0
:1005C00000E400E010B51348006840F00100114954
:1005D000086008464068104908400E4948600846CF
:1005E00000680E4908400B4908600846006820F47E
:1005F000802008600846406820F4FE0048604FF400
:100600001F008860FFF7EDFE4FF0006004490860AE
:1006100010BD0000001002400000FFF8FFFFF6FED2
:1006200008ED00E008B501210802FFF7C9FE4FF40C
:100630007070ADF8000003208DF8020010208DF8D6
:10064000030069460448FFF721FE4FF47071024829
:10065000FFF7ABFE08BD00000020014000BFFEE731
:10066000FFF7E0FFFFF772FF00BFFEE770B504463B
:100670000D460E48FFF795FE4FF63F4100EA010692
:10068000012D08D10A4830F8140040EA0601074855
:10069000FFF78DFE09E0C4F10700054A32F81000AB
:1006A00040EA06010148FFF782FE70BD00200140CC
:1006B0001C000020D40600080000002030000000CC
:1006C0006C010008040700083000002060060000EC
:1006D0008801000800A24A04000000000000000099
:1006E00001020304060708090A00000005000000D3
:1006F0007FFCFFFCBFFCBFFD3FFD3FFF3FFE7FFED9
:0407000000000000F5
:0400000508000131BD
:00000001FF
