:020000040800F2
:100000002804002045010008430400086B03000891
:100010003F040008B9010008290F00080000000093
:10002000000000000000000000000000E1050008E2
:100030003902000800000000C9040008CD060008CD
:100040005F0100085F0100085F0100085F01000810
:100050005F0100085F0100085F0100085F01000800
:100060005F0100085F0100085F0100085F010008F0
:100070005F0100085F0100085F0100085F010008E0
:100080005F0100085F0100085F0100085F010008D0
:100090005F0100085F0100085F0100085F010008C0
:1000A0005F0100085F0100085F0100087109000896
:1000B0005F0100085F0100085F0100085F010008A0
:1000C0005F0100085F0100085F0100085F01000890
:1000D0005F0100085F0100085F0100085F01000880
:1000E0005F0100085F0100085F0100085F01000870
:1000F0005F0100085F0100085F0100085F01000860
:100100005F0100085F0100085F0100085F0100084F
:100110005F0100085F0100085F0100085F0100083F
:100120005F0100085F0100085F0100085F0100082F
:10013000DFF80CD000F02EF800480047E51000086A
:10014000280400200648804706480047FEE7FEE7EF
:10015000FEE7FEE7FEE7FEE7FEE7FEE7FEE7FEE777
:10016000D10600083101000830B50B4601460020D9
:100170002022012409E021FA02F59D4205D303FA69
:1001800002F5491B04FA02F52844151EA2F10102EA
:10019000F1DC30BD064C074D06E0E06840F001039D
:1001A00094E8070098471034AC42F6D3FFF7C4FF39
:1001B000141400083414000800BFFEE700B585B031
:1001C0000121480400F082F90121052000F08EF998
:1001D0000420ADF8100018208DF8130003208DF8CE
:1001E000120004A9124800F028F80820ADF8100009
:1001F00004208DF8130004A90D4800F01EF84FF4F8
:10020000E13000900020ADF80400ADF80600ADF834
:100210000800ADF80C000C20ADF80A00694605484E
:1002200000F012FE0121034800F0F4FD05B000BD0E
:10023000000801400044004070472DE9F0410246AB
:1002400000250026002000230024002791F803C089
:100250000CF00F0591F803C00CF0100CBCF1000F6E
:1002600003D091F802C04CEA050591F800C0BCF13A
:10027000000F31D0146800202BE04FF0010C0CFA75
:1002800000F3B1F800C00CEA03069E4220D18300BF
:100290004FF00F0C0CFA03F7BC4305FA03FC4CEAD1
:1002A000040491F803C0BCF1280F06D14FF0010CF3
:1002B0000CFA00FCC2F814C00AE091F803C0BCF1CB
:1002C000480F05D14FF0010C0CFA00FCC2F810C029
:1002D000401C0828D1D31460B1F800C0BCF1FF0F56
:1002E00034DD546800202EE000F1080C4FF00108C6
:1002F00008FA0CF3B1F800C00CEA03069E4221D1C3
:1003000083004FF00F0C0CFA03F7BC4305FA03FC13
:100310004CEA040491F803C0BCF1280F05D100F1A8
:10032000080C08FA0CF8C2F8148091F803C0BCF16C
:10033000480F07D100F1080C4FF0010808FA0CF83B
:10034000C2F81080401C0828CED35460BDE8F0816C
:100350000246002093680B400BB1012000E0002012
:100360007047416170470161704700BFFEE70000C0
:1003700010B501210B48FFF7EBFF012810D100F069
:1003800051F801210748FFF7E3FF012808D100BF1A
:1003900001210448FFF7DCFF0128F9D0012010BD3E
:1003A0000020FCE70008014010B54FF400510C4854
:1003B000FFF7CEFF88B900F035F84FF40051084838
:1003C000FFF7C6FF48B900BF4FF400510448FFF7DC
:1003D000BFFF0028F8D0012010BD0020FCE700007E
:1003E0000010014008B50121142000F07FF8012021
:1003F000ADF8000003208DF8020004208DF8030002
:1004000069460648FFF719FF4FF40050ADF80000A9
:1004100069460348FFF711FF08BD000000080140CE
:1004200000100140002006E0002100E0491CB1F569
:100430007A7FFBD3401CB0F5FA7FF5D3704700BF3D
:10044000FEE7704770B5002100230F22C47804B383
:10045000154C246804F4E064C4F5E064210AC1F199
:100460000403CA40447804FA03F184781440214319
:1004700009010E4C0678A155047804F01F050124EB
:10048000AC4005786D11AD0005F1E025C5F80041DF
:1004900009E0047804F01F050124AC40044D0678FF
:1004A000761145F8264070BD0CED00E000E400E058
:1004B00080E100E002490143024A116070470000F8
:1004C0000000FA050CED00E07047000029B1064A73
:1004D000D2690243044BDA6104E0034AD2698243E1
:1004E000014BDA61704700000010024029B1064A52
:1004F00092690243044B9A6104E0034A9269824381
:10050000014B9A61704700000010024030B5002195
:100510000022002400232D4D6D6805F00C0121B14F
:10052000042905D0082923D105E0294D056022E0E2
:10053000274D05601FE0254D6D6805F47012234DB1
:100540006D6805F48034022505EB92421CB9214DFB
:10055000554305600BE01D4D6D6805F400351DB178
:100560001C4D5543056002E0194D5543056002E0FE
:10057000174D056000BF00BF144D6D6805F0F00118
:100580000909154D6B5C0568DD4045600F4D6D68D0
:1005900005F4E061090A104D6B5C4568DD4085603B
:1005A0000A4D6D6805F46051C90A0B4D6B5C4568D6
:1005B000DD40C560054D6D6805F44041890B074D70
:1005C0006B5CC568B5FBF3F5056130BD00100240FA
:1005D00000127A0000093D000000002010000020F9
:1005E000704710B500F002F810BD00000CB50020F7
:1005F000019000903348006840F480303149086031
:1006000000BF3048006800F4003000900198401CA2
:100610000190009818B90198B0F5A06FF1D1294860
:10062000006800F4003010B10120009001E00020CB
:1006300000900098012843D12348006840F0100042
:10064000214908600846006820F003000860084659
:10065000006840F0020008601A4840681949486084
:100660000846406848600846406840F4806048603A
:100670000846406820F47C1048600846406840F412
:10068000E81048600846006840F08070086000BFCD
:100690000C48006800F000700028F9D00948406854
:1006A00020F00300074948600846406840F0020017
:1006B000486000BF0348406800F00C000828F9D1EA
:1006C0000CBD0000001002400020024070470000F6
:1006D00010B51348006840F0010011490860084651
:1006E0004068104908400E494860084600680E49B5
:1006F00008400B4908600846006820F48020086024
:100700000846406820F4FE0048604FF41F008860EF
:10071000FFF767FF4FF000600449086010BD00005C
:10072000001002400000FFF8FFFFF6FE08ED00E0B9
:1007300008B501210520FFF7D9FE01210820FFF7A8
:10074000D5FE01210820FFF7D1FE01211820FFF777
:10075000CDFE01211820FFF7C9FE4FF47060ADF8FF
:1007600000001C208DF8030003208DF8020069466C
:100770003448FFF762FD4FF48050ADF800001420BC
:100780008DF8030069463048FFF757FD4FF480515C
:100790002D48FFF7E8FD4FF40050ADF80000694622
:1007A0002948FFF74AFD4FF400512748FFF7DBFDCA
:1007B0004FF48040ADF8000069462348FFF73DFD47
:1007C0004FF480412048FFF7CEFD4FF40040ADF8D4
:1007D000000069461C48FFF730FD4FF400411A48FD
:1007E000FFF7C1FD0120ADF8000014208DF80300D3
:1007F00069461548FFF721FD01211348FFF7B3FDB6
:100800000220ADF8000069460F48FFF716FD0221EF
:100810000D48FFF7A8FD4020ADF8000069460B48E1
:10082000FFF70BFD40210948FFF79DFD8020ADF843
:10083000000069460548FFF700FD80210348FFF7E7
:1008400092FD08BD00080140000C0140001001406D
:1008500000B589B00121C802FFF748FE4FF4A0603F
:10086000FFF728FE1B208DF8040000208DF80500FE
:100870008DF8060001208DF8070001A8FFF7E2FDC2
:100880004FF6FF70ADF81C000320ADF818000020F3
:10089000ADF81E00ADF81A0006A9304800F068FA5D
:1008A0003020ADF808000120ADF80A002C4800887F
:1008B000ADF80E000020ADF810004FF48070ADF8D8
:1008C00014000020ADF8160002A9244800F0ECF84E
:1008D00023484088ADF80E0002A9204800F03AF9FC
:1008E0001F488088ADF80E0002A91C4800F092F95C
:1008F0001B48C088ADF80E0002A9184800F0E4F9C2
:100900000021164800F01CF90021144800F074F989
:100910000021124800F0CEF90021104800F012FA30
:10092000012202210D4800F0B5F8012204210B48F4
:1009300000F0B0F801220821084800F0ABF80122CD
:100940001021064800F0A6F80121044800F069F8DB
:100950000121024800F071F809B000BD002C0140EF
:100960001600002010B5FFF7E3FEFFF771FF10BD82
:1009700010B50221274800F07CF870B1022125480B
:1009800000F04CF8234800F067F80446224800883D
:10099000204481B21F4800F0E2F904211D4800F014
:1009A00068F870B104211B4800F038F8194800F0CD
:1009B00056F8044618484088204481B2154800F093
:1009C000D0F90821134800F054F870B108211148FB
:1009D00000F024F80F4800F045F804460E488088DF
:1009E000204481B20B4800F0BEF91021094800F004
:1009F00040F870B11021074800F010F8054800F0E9
:100A000034F804460448C088204481B2014800F00C
:100A1000ACF910BD002C014016000020CA43028230
:100A2000704721B1028842F00102028004E002888E
:100A30004FF6FE731A400280704731B1B0F844207F
:100A400042F40042A0F8442005E0B0F84420C2F38C
:100A50000E02A0F8442070470146888E7047014678
:100A6000088F70470146888F70470146B1F84000F3
:100A7000704730B50246002000230024158A05EA9D
:100A80000103958905EA010413B10CB1012000E0CE
:100A9000002030BD1AB183890B43838102E0838932
:100AA0008B4383817047000070B50024002200232F
:100AB000058C4FF6FE7635400584028C8388048BC6
:100AC0004FF68F752C40B51E2C400D882C43751E9B
:100AD0002A400D892A434D882A43144DA8420BD041
:100AE000134DA84208D0134DA84205D0124DA8427C
:100AF00002D0124DA84213D14FF6F7752A404D8906
:100B00002A434FF6FB752A408D882A434FF6FF652E
:100B10002B404FF6FF552B408D892B43CD892B431E
:100B200083800483CD888586028470BD002C0140BB
:100B300000340140004001400044014000480140B1
:100B40000A460021018B4FF6F773194011430183C8
:100B50007047000070B5002400220023058C4FF67A
:100B6000EF7635400584028C8388048B48F6FF7548
:100B70002C404FF6FF452C400D884FF6FF7606EAD5
:100B800005252C434FF6DF752A400D8906EA051529
:100B90002A434D8806EA05152A43154DA84202D07E
:100BA000144DA8421DD14FF67F752A404D894FF64E
:100BB000FF7606EA05152A434FF6BF752A408D8851
:100BC00006EA05152A434FF6FF352B404FF2FF7515
:100BD0002B408D8906EA85052B43CD8906EA8505DC
:100BE0002B4383800483CD880587028470BD000079
:100BF000002C0140003401400A460021018B4FF2D5
:100C0000FF7319404FF6FF7303EA02231943018370
:100C10007047000070B5002400220023058C4FF6B9
:100C2000FF6635400584028C8388848B4FF68F7570
:100C30002C404FF6FC752C400D882C434FF6FF5589
:100C40002A400D894FF6FF7606EA05252A434D888E
:100C500006EA05252A43154DA84202D0144DA842A4
:100C60001DD14FF2FF752A404D894FF6FF7606EAF7
:100C700005252A434FF6FF352A408D8806EA0525CB
:100C80002A434EF6FF752B404DF6FF752B408D899C
:100C900006EA05152B43CD8906EA05152B4383800B
:100CA0008483CD888587028470BD0000002C0140BC
:100CB000003401400A460021818B4FF6F77319403A
:100CC000114381837047000070B500220023002487
:100CD000058C4EF6FF7635400584038C8488828B24
:100CE00048F6FF752A404FF6FF452A400D884FF61B
:100CF000FF7606EA05252A434DF6FF752B400D8940
:100D000006EA05352B434D8806EA05352B430B4D86
:100D1000A84202D00A4DA84208D14BF6FF752C40DC
:100D20008D894FF6FF7606EA85152C4384808283F1
:100D3000CD88A0F84050038470BD0000002C014015
:100D4000003401400A460021818B4FF2FF731940A5
:100D50004FF6FF7303EA02231943818370478186AC
:100D600070470187704781877047A0F8401070472F
:100D7000002202881D4B98420ED01D4B98420BD08A
:100D8000B0F1804F08D01B4B984205D01A4B9842C7
:100D900002D01A4B984204D14FF68F731A404B88F9
:100DA0001A43174B984207D0164B984204D04FF67F
:100DB000FF431A40CB881A4302808B8883850B88B7
:100DC00003850A4B98420BD0094B984208D00E4B32
:100DD000984205D00D4B984202D00D4B984201D15C
:100DE0000B7A03860123838270470000002C0140A8
:100DF000003401400004004000080040000C0040A6
:100E00000010004000140040004001400044014038
:100E10000048014021B1828942F40052828104E0FD
:100E200082894DF6FF731A40828170470246002086
:100E3000B1F5007F00D100BF13880B400BB101203A
:100E400000E00020704700002DE9F04786B005461D
:100E50000E460024A24600BFA1460027B08900B17B
:100E600000BF2F462C8A4CF6FF700440F0880443E4
:100E70002C82AC894EF6F3100440B08831890843C7
:100E8000718908430443AC81AC8A4FF6FF400440AB
:100E9000B0890443AC8201A8FFF738FB1F488742A2
:100EA00002D1DDF810A001E0DDF80CA0A88900F463
:100EB000004040B10AEBCA0000EB0A10316849005B
:100EC000B0FBF1F807E00AEBCA0000EB0A1031684A
:100ED0008900B0FBF1F86420B8FBF0F004012009B0
:100EE000642101FB1089A88900F4004040B1322040
:100EF00000EBC900B0FBF1F000F00700044308E08C
:100F0000322000EB09106421B0FBF1F000F00F007B
:100F100004432C8106B0BDE8F08700000038014092
:100F2000C1F308028280704700BFFEE70FB4054B93
:100F300010B503A9044A029800F018F810BC5DF837
:100F400014FB0000C11000082000002002E008C8C7
:100F5000121F08C1002AFAD170477047002001E033
:100F600001C1121F002AFBD1704700002DE9FF4F7D
:100F700089B09B460446002506E025280BD05A463A
:100F80000B999047641C6D1C20780028F5D10DB09A
:100F90002846BDE8F08F0027B8460122474900E007
:100FA000074314F8013F203B02FA03F00842F7D14F
:100FB00020782E2819D114F8010F47F004072A28A9
:100FC0000ED06FF02F022078A0F1300109290CD843
:100FD00008EB880102EB410100EB0108641CF2E719
:100FE0000A98641C50F8048B0A9020780028CED010
:100FF000642808D0692806D075281ED05A460B9957
:1010000090476D1C58E00A994FF00A0901C90A91EE
:10101000002802DA40422D2102E0390504D52B21B7
:101020008DF82010012103E0F90704D02021F7E713
:101030008A4608AE0DE00021FAE70A994FF00A0946
:1010400001C90A91F7E74946FFF78EF8303106F8F3
:10105000011D0028F7D1ADEB060000F1200978074B
:1010600001D44FF00108C84502DDA8EB090000E0FB
:1010700000208046002706E008A85A46C05D0B996C
:1010800090476D1C7F1C5745F6DB04E030205A4624
:101090000B9990476D1CB8F10001A8F10108F5DC2F
:1010A00005E016F8010B5A460B9990476D1CB9F1F3
:1010B0000001A9F10109F4DC641C65E709280100BD
:1010C00070B504460D46E1B20548FFF729FF00BFA1
:1010D00080210348FFF7AAFE0028F9D0204670BD02
:1010E000004400400124FFF77DF9FFF767F896A060
:1010F000FFF71CFF2146A0A0FFF718FFFFF732FC07
:1011000021E1FFF735F9012808D1601CC4B20A2C8F
:1011100000DD0124214698A0FFF708FFFFF744F9FE
:101120000128EDD1214694A0FFF700FF0B2C7CD2C3
:10113000DFE804F07B06192D4054677C8FA3D900AB
:101140009148008864389049088008460088B0F5C6
:101150002F7F02DA4FF42F7008808B4801888BA014
:10116000FFF7E4FEEEE08848008864308649088096
:101170000846008840F6AC51884202DD08468249A4
:1011800008808148018881A0FFF7D0FEDAE07E4820
:10119000408864387C49488008464088B0F52F7FF5
:1011A00002DA4FF42F704880774841887CA0FFF71F
:1011B000BDFEC7E0744840886430734948800846E3
:1011C000408840F6AC51884202DD08466E494880AE
:1011D0006D48418872A0FFF7A9FEB3E06A48808895
:1011E00064386949888008468088B0F52F7F02DA24
:1011F0004FF42F708880644881886EA0FFF796FEB8
:10120000A0E06148808864305F4988800846808813
:1012100040F6AC51884202DD08465B4988805A4856
:10122000818864A0FFF782FE8CE08AE05648C0887F
:1012300064385549C8800846C088B0F52F7F02DA67
:101240004FF42F70C8805048C1885FA0FFF76EFE32
:1012500078E04D48C08864304B49C8800846C08853
:1012600040F6AC51884202DD08464749C8804648EE
:10127000C18855A0FFF75AFE64E058A0FFF756FE5C
:101280005B480078B8B94FF480515A48FFF769F8C5
:101290004FF400515748FFF764F84FF48041554828
:1012A000FFF75FF84FF400415248FFF75AF801206A
:1012B0004F49087016E04FF480514E48FFF753F83D
:1012C0004FF400514B48FFF74EF84FF48041494826
:1012D000FFF749F84FF400414648FFF744F8002073
:1012E000434908702EE044A0FFF720FE47480078ED
:1012F00098B901213F48FFF734F802213D48FFF734
:1013000030F840214248FFF72CF880214048FFF791
:1013100028F801203D49087012E001213548FFF707
:1013200022F802213348FFF71EF840213848FFF722
:101330001AF880213648FFF716F800203349087064
:1013400000E000BF00BFDCE634D6E1B2BDBDF8B5B9
:10135000E7BBFABFD8D6C6A3AC4B455931BACD4B83
:10136000455932D7E9BACFB5F7BDDAB5E7BBFAD7F9
:10137000AAB6AF0A000000006B6579315F636F7534
:101380006E743A25640A00001600002070726573BE
:1013900063616C65725B305D3A25640A0000000091
:1013A0007072657363616C65725B315D3A25640AC6
:1013B000000000007072657363616C65725B325D82
:1013C0003A25640A000000007072657363616C6501
:1013D000725B335D3A25640A00000000B5E7BBFA92
:1013E000D7AAB6AFB7BDCFF2B8C4B1E40A000000C7
:1013F00014000020000C0140B5E7BBFAD7AAB6AF35
:10140000CAB9C4DCBFD8D6C60A0000001500002047
:1014100000100140341400080000002024000000E7
:101420004C0F000858140008240000200404000099
:101430005C0F000800000000010203040102030425
:10144000060708090204060800002003B00440064D
:08145000D007000000000000BD
:0400000508000131BD
:00000001FF
