:020000040800F2
:10000000A0630020451100087D0200087F0200085F
:1000100083020008870200088B020008000000002D
:100020000000000000000000000000008F02000837
:1000300091020008000000009302000895020008E9
:100040005F1100085F1100085F1100085F110008D0
:100050005F1100085F1100085F1100085F110008C0
:100060005F1100085F1100085F1100085F110008B0
:100070005F1100085F1100085F1100085F110008A0
:100080005F1100085F1100085F1100085F11000890
:100090005F1100085F1100085F1100085F11000880
:1000A0005F1100082F1100085F1100085F110008A0
:1000B0005F1100085F1100085F1100085F11000860
:1000C0005F1100085F1100085F1100085F11000850
:1000D0005F1100083D0E0008CD0E00085F110008FA
:1000E0005F1100085F1100085F1100085F11000830
:1000F0005F1100085F1100085F1100085F11000820
:100100005F1100085F1100085F1100085F1100080F
:100110005F1100085F1100085F1100085F110008FF
:100120005F1100085F1100085F1100085F110008EF
:1001300000F002F800F05EF80AA090E8000C82449B
:100140008344AAF10107DA4501D100F053F8AFF278
:10015000090EBAE80F0013F0010F18BFFB1A43F0A5
:10016000010318471C3800003C38000010F8013B20
:100170000A4413F0030408BF10F8014B1D1108BF17
:1001800010F8015B641E05D010F8016B641E01F8C5
:10019000016BF9D1002D15D010F8014B03F00C03C1
:1001A0000C2BA1EB04040ABF10F8013BA4EB831451
:1001B000A4EB032405F1010314F8016B5B1E01F8A5
:1001C000016BF9D5914238BF10F8013BD1D370478C
:1001D0000023002400250026103A28BF78C1FBD850
:1001E000520728BF30C148BF0B6070471FB51FBD05
:1001F00010B510BD02F0DCFC1146FFF7F7FF00F070
:1002000009F802F0FAFC03B4FFF7F2FF03BC02F0B6
:10021000FDFC00001CB500F067FC4FF08140104968
:10022000104B114ACDE900101049114800F094F923
:1002300000F034FD4FF4165000F046FD0D490E4815
:1002400000F086FE00F0B4FE00F0DDFE00F016F9CE
:1002500000F019FC02E0322000F08DFCFBE700000A
:100260000080BB450050C34700803B4594140020EC
:10027000042C00200C14002000440040704700BFF4
:10028000FEE700BFFEE700BFFEE700BFFEE77047E6
:100290007047704710B500F09DFC10BD0CB50020F4
:1002A000019000906C48006840F480306A49086012
:1002B00000BF6948006800F4003000900198401CBD
:1002C0000190009818B90198B0F5A06FF1D162487B
:1002D000006800F4003010B10120009001E000201F
:1002E00000900098012843D15C48006840F010005D
:1002F0005A4908600846006820F003000860084674
:10030000006840F002000860534840685249486065
:100310000846406848600846406840F4806048608D
:100320000846406820F47C1048600846406840F465
:10033000E81048600846006840F08070086000BF20
:100340004548006800F000700028F9D04248406835
:1003500020F00300404948600846406840F0020031
:10036000486000BF3C48406800F00C000828F9D104
:100370000CBD10B5FFF792FF10BD10B536480068F0
:1003800040F001003449086008464068344908409C
:100390003149486008460068324908402E490860E3
:1003A0000846006820F4802008600846406820F471
:1003B000FE0048604FF41F008860FFF7DAFF4FF03F
:1003C00000602949086010BD10B5002100200022FE
:1003D000214B5B6803F00C0121B1042906D00829E8
:1003E00028D107E0214B224C236027E01F4B204CF3
:1003F000236023E0184B5B6803F47010164B5B68B6
:1004000003F48032022303EB904022B9194B43439B
:10041000174C23600DE0104B5B6803F4003323B1ED
:10042000144B4343124C236003E0104B4343104CE6
:10043000236003E00D4B0E4C236000BF00BF064B52
:100440005B68C3F303130C4CE15C094B1B68CB40A6
:10045000074C236010BD0000001002400020024045
:100460000000FFF8FFFFF6FE08ED00E000127A0042
:100470001414002000093D001814002008B50121C3
:10048000042001F009FA4FF4F070ADF800004820A4
:100490008DF8030003208DF802006946254800F01E
:1004A0003FFF08BD10B52448007801281DD123481E
:1004B0000078D0B920211F4800F0C5FFA8B901205D
:1004C0001F4908601F49086080211A4800F0BBFFDF
:1004D00004464FF48071174800F0B5FF04431A48F2
:1004E00004600121194802F07BF8194800780128BE
:1004F0000AD11848007838B940210E4800F0A3FF0F
:1005000010B900200E4908600C4800780A490870AC
:100510002021084800F097FF084908700D4800782E
:100520000B4908704021034800F08DFF094908700D
:1005300010BD0000000801402914002028140020EC
:10054000701400203014002074140020002C01408E
:100550002B1400202A1400202DE9F04F87B0054607
:100560000F461646984600244046109903F00AF9B3
:10057000069052E04FF08041304602F0D3FE4FF03B
:1005800080410590304602F0CDFE0390204602F0F7
:10059000A7FF0290039903F0F5F80490119902F077
:1005A000EBFF8346059902F0BDFE82468AF0004BC0
:1005B000584602F053FB4FF07E51009002F03EFE91
:1005C000019002F00FFE02460B46CDE90201002029
:1005D0006F4902F02DFCCDE9040102F0F7FB8146E2
:1005E0004946069802F0C8FF8346109902F026FE9D
:1005F00045F8240055F8240002F0F4FD02460B46AD
:10060000CDE902010020634902F012FCCDE90401AA
:1006100002F066FD27F81400641C204602F060FF1B
:100620008346314602F074FFA4D307B0BDE8F08FD3
:1006300010B5012922D1584A126840F6B6339A42C1
:1006400015DA554A1268521C534B1A601A46126842
:1006500030F81220514B1A804F4B1B6830F8132092
:1006600002EBD2735B104D4C103423802DE000223E
:10067000494B1A6002224A4B1A6026E0464A126829
:1006800040F6B6339A421BDA434A1268521C424B78
:100690001A601A46126840F6B8339A1A30F81220D7
:1006A0003E4B1A803C4B1B6840F6B834E31A30F8D6
:1006B000132002EBD2735B10384C1034238004E01B
:1006C0000022354B1A60364B1A6010BD10B501215F
:1006D00032482C3802F041FA00284DD001212F4831
:1006E0002C3802F04BFA01212C482C3802F032FA57
:1006F0002C480068012818D129480068012814D125
:1007000029480068012804D101212848FFF790FFFB
:100710000BE02548006820B901212448FFF788FF35
:1007200003E001212148FFF783FF1E480068C0B99C
:100730001B480068022814D11B480068012804D116
:1007400000211A48FFF774FF0BE01748006820B932
:1007500000211648FFF76CFF03E000211348FFF764
:1007600067FF1048006838B90D48006820B90021BB
:100770000A482C3801F034FF10BD10B50446012C96
:1007800002D1FFF7A3FF00E000BF00BF10BD0000D3
:100790000000F03F80842E41341400202C2C0140B6
:1007A00030140020701400207414002094140020D1
:1007B00001E000BF401E0028FBD1704700B5C248D1
:1007C000006820F47060C04908600846006840F482
:1007D000407008600120BD490860BD49C1F8A8010A
:1007E0000220FFF7E5FF0020BA49086000BD00B510
:1007F000B548006820F47060B34908600846006896
:1008000040F4006008600020B04908600520FFF750
:10081000CFFF00BFAF48803800680028FAD1012020
:10082000AA4908600220FFF7C3FF0020AA49C1F8C7
:10083000900100BD00B5A448006820F47060A24992
:1008400008600846006840F44070086000209F4936
:1008500008600220FFF7ACFF00209D49C1F8A80105
:100860000220FFF7A5FF0120984908600220FFF74A
:100870009FFF01209649C1F8A80100BD00B50246BE
:100880009148006820F470608F490860084600684D
:1008900040F440700860002318E000208B49086095
:1008A00002F0010018B101208A49086002E000202E
:1008B000884908600320FFF77BFF5210012083491D
:1008C00008600320FFF774FF581CC3B2082BE4DB59
:1008D00000BD30B5FFF772FF4220FFF7CFFFFFF7F3
:1008E00086FF01207B4908607748006820F470602B
:1008F000754908600846006840F4006008600025FB
:1009000017E000207149086064101E20FFF750FFB7
:1009100001207149C1F890016E488038006810B11B
:1009200044F0800400E000BF1E20FFF741FF681C78
:10093000C5B2082DE5DBFFF75AFFFFF77BFF204626
:1009400030BD30B504460D46172C00DD0024FFF7FE
:1009500035FF4420FFF792FFFFF749FFFFF76AFFDB
:10096000FFF72CFF05F1C001C8B2FFF787FFFFF7C3
:100970003EFF5A49085DFFF781FFFFF738FF30BDA2
:1009800000B5FFF71BFF4020FFF778FFFFF72FFFB1
:10099000FFF750FFFFF712FFC020FFF76FFFFFF7D1
:1009A00026FF0620FFF76AFFFFF721FF4C4800787B
:1009B00080F080004A49087008460078FFF75EFF23
:1009C000FFF715FF0620FFF759FFFFF710FF66201E
:1009D000FFF754FFFFF70BFFFF20FFF74FFFFFF775
:1009E00006FFFF20FFF74AFFFFF701FFFFF722FF97
:1009F000FFF7E4FE8F20FFF741FFFFF7F8FEFFF758
:100A000019FF00BD00B5FFF7D9FE4020FFF736FF04
:100A1000FFF7EDFEFFF70EFFFFF7D0FEC020FFF758
:100A20002DFFFFF7E4FE0020FFF728FFFFF7DFFEB2
:100A30002B48007880F08000294908700020FFF7DB
:100A40001DFFFFF7D4FE0020FFF718FFFFF7CFFED2
:100A50000020FFF713FFFFF7CAFEFF20FFF70EFF8E
:100A6000FFF7C5FEFF20FFF709FFFFF7C0FEFFF706
:100A7000E1FEFFF7A3FE8F20FFF700FFFFF7B7FEB1
:100A8000FFF7D8FE00BD08B501210C2000F004FFDF
:100A90004FF48060ADF8000010208DF803000320B3
:100AA0008DF8020069460848001F00F039FC10204C
:100AB000ADF800008DF8030003208DF802006946B0
:100AC000084800F02DFC08BD040C014090012142B3
:100AD00000802142A88121420000214239140020D7
:100AE000381400200008014030B55F4800685F4AB4
:100AF000B0FBF2F1B1F1807F01D301201DE021F0C4
:100B00007F40401E4FF0E022506150170F22002816
:100B100007DA13071D0E564B00F00F04241F1D5556
:100B200003E013071C0E534B1C5400BF00204FF072
:100B3000E022906107201061002008B100BFFEE7AD
:100B40004FF0E020006920F001004FF0E021086143
:100B500030BD01B54849009808604FF0E0200069B9
:100B600040F001004FF0E021086100BF42480068FA
:100B70000028FBD108BD01B54FF47A7100984843B5
:100B80003D4908604FF0E020006940F001004FF05F
:100B9000E021086100BF384800680028FBD108BD8B
:100BA00010B5FFF77FFC10BD10B53448007838B998
:100BB00002210020FFF7C5FE01203049087004E043
:100BC00000202E490870FFF71DFF2D492D4800F029
:100BD000BFF910BD10B52848006820B1264800684C
:100BE000401E2549086028480068401C26490860C6
:100BF0000846006864280BDD002008602348006870
:100C0000401C2249086022480068401C20490860B6
:100C10001F4800680A2804DD00201D490860FFF70E
:100C2000BFFF1A480068B0F57A7F09DD0020174938
:100C3000086018480068401C16490860FFF7B4FFB8
:100C4000144800683C2807DD00201249086012485B
:100C50000068401C104908600F4800683C2802DD0D
:100C600000200D49086010BD14140020A08601006A
:100C700018ED00E000E400E0541400206C140020A3
:100C80000C14002000380140581400205C1400208F
:100C900060140020641400206814002008B54FF48C
:100CA000A06000F06FFA19208DF8000002208DF886
:100CB000010000208DF8020001208DF80300684635
:100CC00000F065FA08BD000010B586B004460121A9
:100CD000084600F0E1FD012144F2040000F0DCFDD3
:100CE0004FF40070ADF8140003208DF816001820A2
:100CF0008DF8170005A9A54800F012FB4FF480609D
:100D0000ADF8140004208DF8170005A99F4800F0E5
:100D100007FB0121480400F0CCFD0121042000F074
:100D2000BBFD0420ADF8140003208DF81600182038
:100D30008DF8170005A9954800F0F2FA0820ADF8E3
:100D4000140004208DF8170005A9904800F0E8FA77
:100D50000121C80400F0ADFD0121182000F09CFD28
:100D60004FF48060ADF8140003208DF816001820B1
:100D70008DF8170005A9864800F0D2FA4FF40060FC
:100D8000ADF8140004208DF8170005A9804800F084
:100D9000C7FA25208DF8000003208DF801000220FD
:100DA0008DF8020001208DF80300684600F0EFF98D
:100DB00026208DF8000003208DF801008DF8020038
:100DC00001208DF80300684600F0E1F9019400204D
:100DD000ADF80800ADF80A00ADF80C00ADF8100051
:100DE0000C20ADF80E0001A96A4800F0FCFD0122BC
:100DF00040F22551674800F08EFE0121654800F061
:100E00007EFE01940020ADF80800ADF80A00ADF8B0
:100E10000C00ADF810000C20ADF80E0001A95E48E2
:100E200000F0E1FD012240F225515B4800F073FE25
:100E30000121594800F063FE06B010BD10B540F224
:100E40002551544800F04CFF68B354480078C72837
:100E500002D30020514908704E48001D0088C4B2DA
:100E60004C4800F0BDFE4E494C4A12788854084662
:100E70004A490978405C522802D10020474908704D
:100E8000474846490978405C0A2807D1012045496E
:100E9000086000204249414A127888543F4800784F
:100EA000401C3E49087008213A4800F003FF012821
:100EB00006D1384800F094FE0821364800F007FFBC
:100EC00040F22551334800F002FF10BD10B540F24A
:100ED0002551314800F004FF50B3334800782328EF
:100EE00002DB0020304908702B48001D0088C4B286
:100EF000294800F075FE2D492B4A1278885408467F
:100F000029490978405C422802D10020264908700E
:100F100025480078401C244908702448007F912807
:100F200006D101201F4908600020204981F82100D6
:100F300010BD70B504460D4600BF8021204600F06C
:100F4000B9FE0028F9D02946204600F045FE70BDC4
:100F500070B505460C4604E021782846FFF7E9FF06
:100F6000641C20780028F7D170BD2DE9F0410746B8
:100F70000D461646002405E0295D3846FFF7D9FFE7
:100F8000601CC4B2B442F7DBBDE8F0810008014048
:100F90000010014000380140004400407814002057
:100FA000E45A00200414002079140020AC5B0020D7
:100FB00008B50121C80200F06FFC01210C2000F0EF
:100FC0006BFC4FF44040ADF8000018208DF8030092
:100FD00003208DF802006946574800F0A1F94FF44C
:100FE0004050ADF8000014208DF8030003208DF868
:100FF00002006946504800F093F94FF440514E48C2
:1010000000F03BFA08BD00B58BB04FF47A70ADF834
:1010100024004720ADF820000020ADF82600ADF8F0
:10102000220002208DF8280008A9444800F070FF33
:101030000020ADF81000ADF81200ADF81400CD207E
:10104000ADF8160004A93D4801F07EFA7020ADF815
:1010500000000120ADF802000420ADF8040038487B
:101060000088ADF806000020ADF80800ADF80A00D1
:10107000ADF80C00ADF80E006946304801F014F8E8
:1010800008212E4801F0E6FB01212C4801F09CFBD1
:1010900001212A4801F098FA01221146274801F05F
:1010A000AEFA0121254801F09BFA0BB000BD30B526
:1010B00087B005460C460121C80200F0EDFB1F4831
:1010C00000F052FEADF81450ADF810400020ADF81D
:1010D0001600ADF8120004A9184800F019FF6020AE
:1010E000ADF800000120ADF802000020ADF80800C6
:1010F0006946124800F08BFF7020ADF80000012017
:10110000ADF802000020ADF8080069460B4800F079
:10111000CBFF0821094801F090FB0821074801F0A6
:1011200099FB0121054801F04FFA07B030BD10B519
:101130000120FFF722FB10BD000C0140002C0140F4
:101140007E1400200948804709480047FEE7FEE773
:10115000FEE7FEE7FEE7FEE7FEE7FEE7FEE7FEE767
:1011600004480549054A064B704700007B03000808
:1011700031010008A05D0020A0630020A05F0020D6
:10118000A05F002031490143314A1160704770B5BA
:10119000002100230F22C47804B32D4C246804F4EA
:1011A000E064C4F5E064210AC1F10403CA40447854
:1011B00004FA03F18478144021430901254C067890
:1011C000A155047804F01F050124AC4005786D1189
:1011D000AD0005F1E025C5F8004109E0047804F010
:1011E0001F050124AC401C4D0678761145F82640B9
:1011F00070BD1A4A0A400243154B1B1F1A60704704
:1012000039B1134A121D12680243114B1B1D1A609B
:1012100006E00F4A121D126882430D4B1B1D1A6017
:101220007047042808D14FF0E021096941F004011A
:101230004FF0E022116107E04FF0E021096921F051
:1012400004014FF0E0221161704700000000FA0530
:101250000CED00E000E400E080E100E080FFFF1F13
:1012600010B50446CC48844208D10121042000F086
:101270002DFB0021042000F029FB46E0C7488442F2
:1012800008D10121082000F021FB0021082000F0F6
:101290001DFB3AE0C248844208D10121102000F031
:1012A00015FB0021102000F011FB2EE0BD48844208
:1012B00008D10121202000F009FB0021202000F0AE
:1012C00005FB22E0B848844208D10121402000F00B
:1012D000FDFA0021402000F0F9FA16E0B3488442FC
:1012E00008D10121802000F0F1FA0021802000F0D7
:1012F000EDFA0AE0AE48844207D10121801500F0E2
:10130000E5FA0021A01500F0E1FA10BD10B50121A9
:10131000084600F0DBFA0021012000F0D7FA10BDEA
:101320002DE9F0410246002500260020002300247C
:10133000002791F803C00CF00F0591F803C00CF0E2
:10134000100CBCF1000F03D091F802C04CEA050567
:1013500091F800C0BCF1000F31D0146800202BE0E0
:101360004FF0010C0CFA00F3B1F800C00CEA0306D0
:101370009E4220D183004FF00F0C0CFA03F7BC43C0
:1013800005FA03FC4CEA040491F803C0BCF1280FF1
:1013900006D14FF0010C0CFA00FCC2F814C00AE0B0
:1013A00091F803C0BCF1480F05D14FF0010C0CFAC5
:1013B00000FCC2F810C0401C0828D1D31460B1F85A
:1013C00000C0BCF1FF0F34DD546800202EE000F1B6
:1013D000080C4FF0010808FA0CF3B1F800C00CEA51
:1013E00003069E4221D183004FF00F0C0CFA03F745
:1013F000BC4305FA03FC4CEA040491F803C0BCF1B9
:10140000280F05D100F1080C08FA0CF8C2F8148076
:1014100091F803C0BCF1480F07D100F1080C4FF060
:10142000010808FA0CF8C2F81080401C0828CED336
:101430005460BDE8F0814FF6FF7101800221817098
:101440000421C17070470246002093680B400BB125
:10145000012000E0002070470146886880B2704794
:1014600002460020D3680B400BB1012000E00020B1
:1014700070470146C86880B270470161704741619A
:1014800070470AB1016100E041617047C160704777
:101490004FF480320A43826181618261826982698C
:1014A000704702460020434B18684FF6807318407F
:1014B00040EA021008433F4B186070473E49C8613C
:1014C0007047F0B50A46002300240021002500F0F3
:1014D0000046B6F1004F02D1364EF16901E0354EBB
:1014E0007168C0F3034583B200F44016B6F5401F9F
:1014F00008D121F070612F4E766826F070662D4F6E
:101500007E6012E000F48016B6F5801F06D1032637
:1015100006FA05F4A14341F0706106E0460D36017C
:1015200003FA06F6B14341F0706122B1460D36016F
:1015300003FA06F6314300F00046B6F1004F02D13F
:101540001C4EF16101E01B4E7160F0BD30B5002210
:101550008B071C0F0F2303FA04F2164B08338C1071
:1015600053F824309343134C08348D1044F825303D
:1015700023468C1053F824308C07240F00FA04F40F
:1015800023430C4C08348D1044F8253030BD0A49F3
:10159000DC3108607047000000080140000C014089
:1015A000001001400014014000180140001C0140DF
:1015B000002001400000014000002042DF48006898
:1015C00040F00100DD49086008464068DC490840F9
:1015D000DA49486008460068DA490840D749086097
:1015E0000846006820F4802008600846406820F41F
:1015F000FE0048604FF41F0088607047CF490968BB
:1016000021F48031CD4A11601146096821F480210E
:101610001160B0F5803F03D0B0F5802F0ED106E009
:10162000C649096841F48031C44A116007E0C349E2
:10163000096841F4A021C14A116000E000BF00BF69
:10164000704710B501460022002300204A11012AEC
:1016500002D1BA4C236806E0022A02D1B74C236AB1
:1016600001E0B64C636A01F01F02012494401C4063
:101670000CB1012000E0002010BD38B50020009022
:101680000024002500BF3120FFF7DBFF054600984E
:10169000401C00900098B0F5A06F01D0002DF2D052
:1016A0003120FFF7CEFF08B1012400E000242046DE
:1016B00038BD01460020A14A106820F0F80040EA39
:1016C000C10010607047A0490860704702460020C2
:1016D0009A4B586820F47C1042EA01031843974B58
:1016E0005860704798490866704701460020934A41
:1016F000506820F003000843506070478F484068EE
:1017000000F00C007047014600208C4A506820F021
:10171000F00008435060704701460020874A506837
:1017200020F4E06008435060704701460020834A7F
:10173000506820F4605040EAC1005060704729B101
:101740007E4A527A02437D4B5A7204E07B4A527AB7
:1017500082437A4B5A7270477B49D8310860704790
:1017600001460020754A506820F44040084350600C
:1017700070470021714A20321170704A82F820109F
:10178000012802D004280AD104E001216B4A20324A
:10179000117005E00521694A2032117000E000BF98
:1017A00000BF70476949086070476449096A01438E
:1017B000624A11627047654944390860704730B524
:1017C00000210022002400235C4D6D6805F00C010F
:1017D00021B1042905D0082923D105E05C4D05601D
:1017E00022E05B4D05601FE0544D6D6805F47012FA
:1017F000524D6D6805F48034022505EB92421CB908
:10180000544D554305600BE04C4D6D6805F40035B3
:101810001DB1504D5543056002E04D4D55430560E7
:1018200002E04B4D056000BF00BF444D6D6805F000
:10183000F0010909484D6B5C0568DD4045603F4D8E
:101840006D6805F4E061090A434D6B5C4568DD4055
:1018500085603A4D6D6805F46051C90A3E4D6B5C78
:101860004568DD40C560354D6D6805F44041890B24
:101870003A4D6B5CC568B5FBF3F5056130BD29B128
:101880002E4A526902432D4B5A6104E02B4A526999
:1018900082432A4B5A61704729B1284A9269024310
:1018A000264B9A6104E0254A92698243234B9A6150
:1018B000704729B1214AD2690243204BDA6104E022
:1018C0001E4AD26982431D4BDA61704729B11B4A17
:1018D000D2680243194BDA6004E0184AD2688243A6
:1018E000164BDA60704729B1144A12690243134B50
:1018F0001A6104E0114A12698243104B1A61704761
:1019000012494039086070470F49C86470470B4955
:10191000C87170470948406A40F0807007494862C2
:10192000704701460020054A92680A400AB101202A
:1019300000E00020704701498872704700100240A3
:101940000000FFF8FFFFF6FE000042428004424222
:1019500000127A0000093D0080140020901400203D
:1019600010B50446FB48844209D101218803FFF7E2
:10197000ADFF00214FF48040FFF7A8FF32E0F648AA
:10198000844209D101214804FFF7ADFF00214FF443
:101990000030FFF7A8FF25E0F048844209D101217B
:1019A0008804FFF7A0FF00214FF48020FFF79BFF82
:1019B00018E0EB48844209D10121C804FFF793FFE6
:1019C00000214FF40020FFF78EFF0BE0E548844232
:1019D00008D101210805FFF786FF00214FF4801090
:1019E000FFF781FF10BD2DE9F04786B005460E4692
:1019F0000024A24600BFA1460027B08900B100BF65
:101A00002F462C8A4CF6FF700440F08804432C8249
:101A1000AC894EF6F3100440B088318908437189CF
:101A200008430443AC81AC8A4FF6FF400440B089C0
:101A30000443AC8201A8FFF7C2FEC648874202D128
:101A4000DDF810A001E0DDF80CA0A88900F400404A
:101A500040B10AEBCA0000EB0A1031684900B0FB44
:101A6000F1F807E00AEBCA0000EB0A1031688900C0
:101A7000B0FBF1F86420B8FBF0F004012009642108
:101A800001FB1089A88900F4004040B1322000EB2E
:101A9000C900B0FBF1F000F00700044308E0322079
:101AA00000EB09106421B0FBF1F000F00F000443DB
:101AB0002C8106B0BDE8F0874FF41651016000217B
:101AC0008180C18001810C21418100218181704789
:101AD00010B502460020108A4FF2FF0318400B8811
:101AE0004C8823438C882343CC882343184310829B
:101AF00010BD0021018041808180C180704721B1EB
:101B0000828942F40052828104E082894DF6FF739B
:101B10001A4082817047F0B5034600240026002554
:101B2000002040F66A17B94200D100BF1846C1F341
:101B3000421401F01F06012707FA06F5012C01D116
:101B40000C3004E0022C01D1103000E014301AB146
:101B500007682F43076002E00768AF430760F0BDE6
:101B60001AB1838A0B43838202E0838A8B43838288
:101B70007047028A4FF6F0731A400282028A0A43C3
:101B80000282704782894FF2FF731A4082818289F4
:101B90000A438281704721B1828942F00202828128
:101BA00004E082894FF6FD731A4082817047028AF1
:101BB0004FF6DF731A400282028A0A43028270479C
:101BC00021B1028A42F48042028204E0028A4BF68A
:101BD000FF731A4002827047C1F308028280704787
:101BE00001468888C0F308007047818941F00101EF
:101BF00081817047028BD2B20283028B42EA0122BA
:101C000002837047028B02F47F420283028B0A43F5
:101C10000283704721B1828A42F02002828204E06E
:101C2000828A4FF6DF731A408282704721B1828A1E
:101C300042F01002828204E0828A4FF6EF731A406B
:101C40008282704721B1828A42F00802828204E0D7
:101C5000828A4FF6F7731A408282704721B18289D7
:101C600042F40042828103E08289C2F30E02828143
:101C7000704721B1828A42F40062828204E0828A43
:101C80004FF2FF731A4082827047828A4FF6FB73CD
:101C90001A408282828A0A438282704721B1828AF4
:101CA00042F00202828204E0828A4FF6FD731A40FB
:101CB0008282704702460020B1F5007F00D100BF4C
:101CC00013880B400BB1012000E00020704701F4A5
:101CD0000072B2F5007F00D100BFCA430280704796
:101CE00070B50246002400230025002040F66A1645
:101CF000B14200D100BFC1F3421501F01F0301261C
:101D000006FA03F3012D02D19689334006E0022D35
:101D100002D1168A334001E0968A33400C12012624
:101D200006FA04F41688344013B10CB1012000E027
:101D3000002070BD10B50022002340F66A14A142B5
:101D400000D100BF0A1201249440A3B2DC430480F6
:101D500010BD000000380140004400400048004031
:101D6000004C00400050004010B50446FE4884423C
:101D700008D10121C014FFF7A9FD0021E014FFF7ED
:101D8000A5FDC4E0B4F1804F08D101210846FFF75A
:101D9000AAFD00210120FFF7A6FDB8E0F348844228
:101DA00008D101210220FFF79EFD00210220FFF74C
:101DB0009AFDACE0EE48844208D101210420FFF7EF
:101DC00092FD00210420FFF78EFDA0E0E948844247
:101DD00008D101210820FFF786FD00210820FFF728
:101DE00082FD94E0E448844208D101211020FFF7ED
:101DF0007AFD00211020FFF776FD88E0DF4884425D
:101E000008D101212020FFF76EFD00212020FFF7DF
:101E10006AFD7CE0DA48844208D101214014FFF7D2
:101E200055FD00216014FFF751FD70E0D548844254
:101E300009D10121C804FFF749FD00214FF400201A
:101E4000FFF744FD63E0D048844209D10121080531
:101E5000FFF73CFD00214FF48010FFF737FD56E0FF
:101E6000CA48844209D101214805FFF72FFD00210E
:101E70004FF40010FFF72AFD49E0C548844208D11D
:101E800001214020FFF72FFD00214020FFF72BFD0F
:101E90003DE0C048844208D101218020FFF723FDA6
:101EA00000218020FFF71FFD31E0BB48844208D1AC
:101EB00001218015FFF717FD0021A015FFF713FD85
:101EC00025E0B648844209D101210804FFF7FEFC51
:101ED00000214FF48030FFF7F9FC18E0B04884424D
:101EE00009D101214804FFF7F1FC00214FF4003033
:101EF000FFF7ECFC0BE0AB48844208D101218804D9
:101F0000FFF7E4FC00214FF48020FFF7DFFC10BD59
:101F100000220288944B98420ED0994B98420BD0E5
:101F2000B0F1804F08D0914B984205D0904B984229
:101F300002D0904B984204D14FF68F731A404B88D1
:101F40001A438D4B984207D08C4B984204D04FF6E1
:101F5000FF431A40CB881A4302808B8883850B8805
:101F60000385814B98420BD0854B984208D08B4B10
:101F7000984205D08A4B984202D08A4B984201D1B0
:101F80000B7A038601238382704770B500240022F8
:101F90000023058C4FF6FE7635400584028C83883D
:101FA000048B4FF68F752C40B51E2C400D882C43AA
:101FB000751E2A400D892A434D882A436A4DA8423E
:101FC0000BD06F4DA84208D0744DA84205D0744D77
:101FD000A84202D0734DA84213D14FF6F7752A409C
:101FE0004D892A434FF6FB752A408D882A434FF6C8
:101FF000FF652B404FF6FF552B408D892B43CD8934
:102000002B4383800483CD888586028470BD70B5A0
:10201000002400220023058C4FF6EF76354005841E
:10202000028C8388048B48F6FF752C404FF6FF45E1
:102030002C400D884FF6FF7606EA05252C434FF617
:10204000DF752A400D8906EA05152A434D8806EA00
:1020500005152A43444DA84202D0494DA8421DD13E
:102060004FF67F752A404D894FF6FF7606EA051533
:102070002A434FF6BF752A408D8806EA05152A4384
:102080004FF6FF352B404FF2FF752B408D8906EA46
:1020900085052B43CD8906EA85052B438380048380
:1020A000CD880587028470BD70B50024002200230E
:1020B000058C4FF6FF6635400584028C8388848B3F
:1020C0004FF68F752C404FF6FC752C400D882C4335
:1020D0004FF6FF552A400D894FF6FF7606EA052593
:1020E0002A434D8806EA05252A431F4DA84202D0FF
:1020F000234DA8421DD14FF2FF752A404D894FF65E
:10210000FF7606EA05252A434FF6FF352A408D88DB
:1021100006EA05252A434EF6FF752B404DF6FF755E
:102120002B408D8906EA05152B43CD8906EA051556
:102130002B4383808483CD888587028470BD70B5EE
:10214000002200230024058C4EF6FF7635400584DE
:10215000038C8488828B48F6FF752A404FF6FF4532
:102160002A400D8820E00000002C014000040040BF
:1021700000080040000C0040001000400014004027
:1021800000340140004C0140005001400054014027
:1021900000180040001C00400020004000400140AA
:1021A00000440140004801404FF6FF7606EA05254D
:1021B0002A434DF6FF752B400D8906EA05352B4362
:1021C0004D8806EA05352B43FA4DA84202D0FA4D58
:1021D000A84208D14BF6FF752C408D894FF6FF764B
:1021E00006EA85152C4384808283CD88A0F8405070
:1021F000038470BD828B4FF2FF331A408283828B3F
:102200004FF6FF7303EA01231A4382837047F0B548
:102210000C461546002200210026078C4EF6FF7C56
:1022200007EA0C070784828B018C4FF6FF7707EAD9
:10223000043640F6FF473A404FF6FF7707EA052796
:102240003A434FF6FF7707EA03373A43D94FB8428C
:102250000ED0D94FB8420BD0B0F1804F08D0D74F35
:10226000B84205D0D64FB84202D0D64FB84206D1B8
:102270004DF6FF77394046F48057394305E047F67D
:10228000FF57394044F48057394382830184F0BDBD
:10229000828B4FF6F3731A408283828B0A438283C8
:1022A0007047F0B50C461546002200210026078C29
:1022B0004FF6FF6C07EA0C070784828B018C4FF600
:1022C000FF7707EA04264FF60C773A404FF6FF7780
:1022D00007EA03172F433A43B64FB8420ED0B64F22
:1022E000B8420BD0B0F1804F08D0B44FB84205D0FF
:1022F000B34FB84202D0B34FB84206D14FF6FF57A2
:10230000394046F48077394305E04FF2FF573940B2
:1023100044F48077394382830184F0BD028B4FF20D
:10232000FF331A400283028B4FF6FF7303EA012347
:102330001A4302837047F0B50C461546002200216F
:102340000026078C4FF6EF7C07EA0C070784028B08
:10235000018C4FF6FF7707EA041640F6FF473A4034
:102360004FF6FF7707EA03373A434FF6FF7707EA5E
:1023700005273A438F4FB8420ED08F4FB8420BD04B
:10238000B0F1804F08D08D4FB84205D08C4FB84285
:1023900002D08C4FB84206D14FF6DF77394046F075
:1023A0001007394305E04FF65F77394044F01007D6
:1023B000394302830184F0BD028B4FF6F3731A4058
:1023C0000283028B0A4302837047F0B50C46154620
:1023D00000220021068C4FF6FE773E400684028BD9
:1023E000018C4FF60C7632407E1C06EA03162E4313
:1023F0003243704EB0420ED06F4EB0420BD0B0F1AF
:10240000804F08D06D4EB04205D06D4EB04202D024
:102410006C4EB04206D14FF6FD76314044F00106D5
:10242000314305E04FF6F576314044F00106314383
:1024300002830184F0BD70B505460C465D488542B7
:102440000ED05D4885420BD0B5F1804F08D05B4877
:10245000854205D05A48854202D05A48854200D16B
:1024600000E000BF208850B92389A28861882846EF
:10247000FFF7ABFFE1882846FFF79EFF25E02088A5
:1024800004280AD12389A28861882846FFF753FFD0
:10249000E1882846FFF742FF17E0208808280AD184
:1024A0002389A28861882846FFF7FBFEE188284639
:1024B000FFF7EEFE09E02389A28861882846FFF72E
:1024C000A6FEE1882846FFF795FE70BD2DE9F04194
:1024D00005460C4600260127608808B9022600E060
:1024E0000026A088012801D1022700E001272088CA
:1024F000A0B92389A28861882846FFF766FFE18892
:102500002846FFF759FF23893A4631462846FFF708
:1025100012FFE1882846FFF701FF13E02389A28814
:1025200061882846FFF707FFE1882846FFF7F6FE97
:1025300023893A4631462846FFF747FFE188284677
:10254000FFF73AFFBDE8F0810A884B881A438B8871
:102550001A43CB881A430B891A434B891A438B8938
:102560001A43A0F8442070474FF6FF718180002184
:102570000180C1804180017270470021018041804B
:102580008180C180018141818181C18170470021A9
:1025900001804180012181800021C180018170473B
:1025A0000021018041808180C18001814181818140
:1025B00070470000002C014000340140000400403E
:1025C00000080040000C004021B1028842F00102E6
:1025D000028004E002884FF6FE731A4002807047C2
:1025E00031B1B0F8442042F40042A0F8442005E0A4
:1025F000B0F84420C2F30E02A0F8442070471AB18C
:1026000083890B43838102E083898B4383817047F5
:102610008182704741EA0203A0F8483070471AB13E
:1026200083890B43838102E083898B4383817047D5
:1026300001894FF6F8721140018170470A46002166
:1026400001894FF68F73194011430181704730B5EE
:1026500004460D4629462046FFF7F0FF208940F04A
:102660000700208130BD2DE9F04104460D46164695
:102670001F46602D06D13B46012231462046FFF71A
:102680005AFE05E03B46012231462046FFF79DFEFB
:1026900029462046FFF7D2FF208940F0070020811D
:1026A000BDE8F08130B50C4600210189C9B24FF672
:1026B000FF7505EA0325154325432943018130BDF4
:1026C0002DE9F04105460E4617469846002443463C
:1026D0003A4631462846FFF7E5FF2C894FF6F87059
:1026E000044044F007044FF68F70044044F0700437
:1026F0002C81BDE8F081F0B504460D4616461F4614
:102700003B46324629462046FFF7CCFF208940F45D
:1027100080402081F0BD0185828270470A460021F9
:1027200001884FF68F731940114301807047F0B54F
:102730000C4615461E460021002200230189028B0B
:10274000038C4FF6F877394021434FF6FC473A4067
:1027500040F201173A434FF6DD773B404FF6FF77E3
:1027600007EA06172F433B43018102830384F0BD30
:102770000A460021018B4FF68F73194011430183E4
:1027800070470A460021018B48F6FF7319404FF647
:10279000FF7303EA02231943018370470A460021AD
:1027A000818B4FF68F7319401143818370470A461E
:1027B0000021818B48F6FF7319404FF6FF7303EA3F
:1027C000022319438183704721B1028842F08002BD
:1027D000028004E002884FF67F731A40028070473F
:1027E00021B1828842F00402828004E082884FF6A0
:1027F000FB731A408280704721B1828842F0080240
:10280000828004E082884FF6F7731A408280704716
:1028100021B1828842F00102828004E082884FF672
:10282000FE731A40828070470A460021018B4FF6E2
:10283000F77319401143018370470A460021018B49
:102840004FF2FF7319404FF6FF7303EA0223194357
:10285000018370470A460021818B4FF6F7731940B8
:102860001143818370470A460021818B4FF2FF7329
:1028700019404FF6FF7303EA02231943818370471F
:102880000A460021018B4FF6FB7319401143018367
:1028900070470A460021018B4FF6FF3319404FF66F
:1028A000FF7303EA02231943018370470A4600219C
:1028B000818B4FF6FB7319401143818370470A46A1
:1028C0000021818B4FF6FF3319404FF6FF7303EA67
:1028D00002231943818370470A460021018B4FF67A
:1028E0007F7319401143018370470A460021018B11
:1028F000C1F30E014FF6FF7303EA0223194301836C
:1029000070470A460021818B4FF67F7319401143AF
:10291000818370470A460021818BC1F30E014FF677
:10292000FF7303EA02231943818370470A4600219B
:10293000018C4FF6FD7319401143018470470A461C
:102940000021018C4FF6F773194011430184704741
:102950000A460021018C4FF6DF7319404FF6FF73D2
:1029600003EA02131943018470470A460021018CCF
:102970004FF67F7319404FF6FF7303EA02131943B2
:10298000018470470A460021018C4FF6FF5319401D
:102990004FF6FF7303EA02231943018470470A4686
:1029A0000021018C4FF2FF7319404FF6FF7303EAC9
:1029B00002231943018470470A460021018C4DF619
:1029C000FF7319404FF6FF7303EA02331943018482
:1029D000704730B5002301248C40A3B2048C9C4383
:1029E0000484048C02FA01F5ADB22C43048430BD9A
:1029F00030B5002304248C40A3B2048C9C4304848F
:102A0000048C02FA01F5ADB22C43048430BD70B5DC
:102A10000346002000241846183001258D40ACB232
:102A20001D8CA5431D8409B1082909D100EB610063
:102A3000056825F0700505600568154305600EE022
:102A40000D1FC5F34E052844056825F4E0450560D3
:102A500005684FF6FF7606EA02263543056070BD2D
:102A600021B1028842F00202028004E002884FF69F
:102A7000FD731A400280704721B1028842F00402BF
:102A8000028004E002884FF6FB731A400280704710
:102A900021B1828842F08002828004E082884FF671
:102AA0007F731A408280704702884FF6F7731A408E
:102AB000028002880A430280704782884FF68F7333
:102AC0001A40828082880A438280704702894FF6CA
:102AD000F8731A40028102890A4302817047028911
:102AE0004FF67F731A40028102890A4302817047C0
:102AF0008184704781857047818670470187704760
:102B000081877047A0F84010704702884FF6FF4356
:102B10001A40028002880A43028070470146888E6C
:102B200070470146088F70470146888F70470146FD
:102B3000B1F8400070470146888C70470146088D07
:102B4000704702460020138A0B400BB1012000E0C1
:102B500000207047CA430282704730B50246002009
:102B600000230024158A05EA0103958905EA01047A
:102B700013B10CB1012000E0002030BDCA43028235
:102B8000704770477047704710B500F009F800684B
:102B900010BD10B5044600F003F8046010BD00003D
:102BA000004870473C5D0020004870473C5D0020B5
:102BB0007546FFF7F9FFAE4605006946534620F01B
:102BC0000700854618B020B5FEF7CAFABDE82040D8
:102BD0004FF000064FF000074FF000084FF0000BD9
:102BE00021F00701AC46ACE8C009ACE8C009ACE88C
:102BF000C009ACE8C0098D46704710B50446AFF374
:102C000000802046BDE81040FDF7FDBA01491820BC
:102C1000ABBEFEE72600020070474100080218BF65
:102C200004200A0E18BF40F001004FF07F4232EA44
:102C3000010108BF40F00200012808BF05207047CD
:102C4000012100F046BE61214FF0E04000F041BE9E
:102C50006FF05E01080700F03CBE00002DE9F04176
:102C600004464FF019404E49002500EB44008842CD
:102C70004AD84C49204600F07FFC00F049FD8046D0
:102C800000F012FC06464849404600F075FC074635
:102C90004649404600F070FC214600F069FD394687
:102CA00000F070FD0446424900F066FC414900F026
:102CB000C5FA214600F060FC6FF0414100F0BEFA19
:102CC000214600F059FC3C4900F0B8FA214600F0DA
:102CD00053FC0146394806F00304784450F82400B8
:102CE00000F04AFC3649794451F8241000F0A6FA65
:102CF0003449794451F8241000F0A0FAB11085BB92
:102D0000BDE8F04100F0E5BD4FF0FF4131EA0400BD
:102D100018D04FF0CE41B1EB440F84BF4FF07E503E
:102D2000BDE8F0812849B1EB440F28BF0125A0D2AE
:102D30000220FFF72EFF14F0004F0ED0BDE8F04147
:102D4000FFF786BF204614F5000F04BF0020BDE842
:102D5000F081BDE8F041FFF773BFBDE8F041FFF738
:102D600072BF00F0B6FD04000BD0B4F1FF4F0FD0DE
:102D7000FFF753FF042808BFFFF76AFF2046BDE8AE
:102D8000F0810220FFF705FFBDE8F041FFF760BFCB
:102D90000220FFF7FEFEBDE8F041FFF754BF000040
:102DA0000000501E3BAAB840F4FD05370070313ECC
:102DB00012BB2A3D12BB2A3EFFFF7F3F920C000050
:102DC000760C00005A0C00000000A08521F00042A3
:102DD000A2F16052B2F5801F01F0004328BFD2F18A
:102DE0007F6C0BD95FEA001C43EAC20242EB5070D1
:102DF00018BF704728BF20F001007047B2F5801F50
:102E0000BCBF184670474FEA410C1CF5001F02D2A8
:102E1000084600F078BC70B500F08FF9000000891A
:102E2000FFF7F6BF4FF00040A0F5800070470000AC
:102E30002DE9C04130B4DFF8A0C23CEA111418BF3C
:102E40003CEA131400F0EC8081EA03051CEA11143B
:102E500044EAD57418BF1CEA131500F0C780A4EB30
:102E600005044FF0004545EAC12145EAC32341EA84
:102E7000505143EA525304F17F74994204F50034EF
:102E80004FEAC0204FEAC22208BF904200F09C8067
:102E90004FEA13650FF24016765D4FEA134506FBC5
:102EA00005F7C7F1807706FB07F74FEAD737A7FB8F
:102EB00003687642C8F58038A7FB06CE38BFA8F174
:102EC000010807FB08E64FF0000EA6FB028CE6FBAC
:102ED00003CEDCF1000CCEF1004E38BFAEF1010E96
:102EE000A6FB0C584FF000074FF00005E6FB0E87DD
:102EF000A1FB08C6A0FB07CE16EB0E0645F10005A8
:102F0000E1FB076515F1E04E7EBFA4F580345FEA72
:102F100046066D4116F1800745F100054FEA172777
:102F20004FEA066647EA0567A6F1DE46B6F1805F1E
:102F30004FEA15251FD9384624F0010C05EBC47162
:102F4000BCF1FE6F01EB0C1102D8F0BCBDE80081B2
:102F500024425CBF01F5801E9EEAC47F02D4F0BC0F
:102F6000BDE80081244238D4F0BCA1F1C041BDE8E5
:102F7000004100F030B94FEAD22242EA43524FEA10
:102F8000D323A7FB02864FEAD02040EA415007FB3B
:102F900003661EEA0E0F4FEAD12105FB026658BFF9
:102FA000A6EB0056B6EB00564FEA520E4EEAC37E31
:102FB00018EB0E0E56EB530EBDD518EB02085E4112
:102FC0007F1C55F10005B6E74FF480154FF0000760
:102FD0004FF000064FF00008ADE7F0BC4FF00000E6
:102FE00001F1C04101F00041BDE8008111EA0C1F70
:102FF0000CEA131500D00CE013EA0C1F00F025803A
:103000004FF00000F0BC81EA030101F00041BDE88F
:103010000081F0BCBDE8004181EA030100F0DBB8AB
:10302000F0BCBDE8004170B500F087F8097EFC3EB9
:1030300000F007B881EA03014FF0000001F0004101
:10304000704781EA030100F0C6B8F0BCBDE800415A
:103050004FF0000021497047FFFDFBF9F7F5F4F24E
:10306000F0EEEDEBE9E8E6E4E3E1E0DEDDDBDAD823
:10307000D7D5D4D3D1D0CFCDCCCBCAC8C7C6C5C481
:10308000C2C1C0BFBEBDBCBBBAB9B8B7B6B5B4B398
:10309000B2B1B0AFAEADACABAAA9A8A8A7A6A5A483
:1030A000A3A3A2A1A09F9F9E9D9C9C9B9A99999847
:1030B0009797969595949393929191908F8F8E8EEA
:1030C0008D8C8C8B8B8A8989888887878685858477
:1030D00084838382828181800000FF070000F87F63
:1030E0004FEA1153A3F58063D3F11E03A8BFD3F1B8
:1030F000200C08DB4FF0004242EAC12252EA505253
:1031000032FA03F0704709420BD4102BC4BF0020E1
:10311000704703F5787CBCF1FF3F05D04FF0FF30DE
:1031200070474FF00000704770B500F006F800BF20
:103130004992248000207047F0E70EF1020E2EF035
:10314000030E5EF8046B364205D4012A43EB0305F7
:1031500015F5001F12D8012841EB010C1CF5001FCA
:103160000CD80ED14FEAD17C15F5001F0CEB4C0C9E
:103170000CF1020C08BF4CEBD37C04E04FF0080CC0
:1031800001E04FEAD37C0CEB4C0526FA05F606F07D
:103190000706B6F1040C06D20EEB860CBDE87040B3
:1031A0004CF0010C6047DFE80CF0090B02024FF015
:1031B00000414FF00000A1F5002170BD19461046F6
:1031C000012851EB010418BFD4F5001484BF00207E
:1031D00001F0004170BD0808A0F500114FEA31016F
:1031E0007047000043004FEAD30C4FEA3C0C4340C9
:1031F0001FBF40070CF1605113F0FE4F70471CF0E9
:10320000006F03D100200CF0004170470CF0004328
:1032100043EA507010B540EACC0000F02EFA00BF2F
:10322000000000924FEA0001FFF7D5BF4FF00041C8
:103230004FF00000A1F500217047000090EA010F57
:1032400048BF81F0004100F1A482421A3CBF801ABD
:1032500089184FEAD0524FF07F4C1CEA410FA2EB85
:10326000D15318BF9CEA026F00F03B804FF0004C36
:103270004CEA00204CEA012121FA03FC10EB0C0C73
:103280001ED202F1FF325FEA1C2040EBC25038BF71
:1032900070471CF07F0F4FEA400C18BFBCF17F4F06
:1032A00038BF7047C3F12003994008BF20F00100E8
:1032B000BCF17F4F38BF7047A0F1C04000F023BA87
:1032C0004FEA3C00000A40EBC25028BF1CF0FF0F41
:1032D0004FEA400CE6D018BFBCF17F4F38BF7047B3
:1032E000EAE79CEA026F05D010EA5C0F08BF00F025
:1032F0000040704710B500F0C0F900BF64FBBE3E4F
:10330000014800F0B4BA00BF0000C07F401058BFB1
:10331000C0F14040491058BFC1F140418142EFF334
:10332000008070474FF47F0C1CEAD0121EBF1CEACD
:10333000D11392EA0C0F93EA0C0F00F0858090EA0B
:10334000010F48BF42F4807240F4000C41F40000C9
:103350002CF07F4120F07F4000B58142A2EB0302B8
:103360000FF2081CACEB504EC0F100009EF800E0DC
:103370004FEA4E0E00FB0EFC38BF49004FEA2C1CF2
:1033800002F5FA020CFB0EF34FEACE1E4FEA112CA7
:103390004FEAC1210EEB635E42EB22420EFB0CFCB6
:1033A0004FEA1C5300FB03114FEA112C4FEA013185
:1033B0000EFB0CFC4FEADC4C00FB0C11C14228BF99
:1033C00009184CEB03335DF804EB10EB410143EBC0
:1033D000C250B2F57C0F38BF704729D512F0F00FFC
:1033E0001CBF00F1C04000F00040704700818283A4
:1033F0008485868788898B8C8D8E8F919293959604
:1034000097999A9C9D9FA0A2A3A5A7A8AAACAEB08D
:10341000B2B3B5B7B9BCBEC0C2C5C7C9CCCED1D492
:10342000D7D9DCDFE2E6E9ECF0F3F7FAFE000000C2
:103430004FEA400C0CF1807CBCF17E4F28BF7047F6
:10344000B0F1C04000F05FB990EA010F0CEAD1136F
:1034500048BF42F48072624538BF634507D213F417
:103460007F0F16D080EA010000F00040704710B5D1
:1034700000F003F9097EFC3E00F005B880EA010087
:1034800000F00040704780EA010000F0004000F0CA
:103490003AB912F47F0F04BF0248704780EA010076
:1034A00000F031B90000C07F41000B0ED3F19E0245
:1034B00008D950F400034FEA032323FA02F048BF6F
:1034C0004042704710B500F0D8F800BF4992248000
:1034D000002070476FF0004282EA20007047000031
:1034E00010F0004148BF4042B0FA80F310FA03F2F6
:1034F000C3F19D030BD051EAC35101EB12205306D7
:1035000038BF704700F1010008BF20F0010070478C
:1035100050EA010C00F113801CF5000F58BFBCF5F8
:10352000000F01D48842704707D710F5000F58BF2D
:1035300011F5000F15D488427047894270471CF579
:10354000000F04D5BCF5000FF7D5814270474FF04E
:10355000807C1CEB400F38BF1CEB410F01D2814235
:10356000704710B500F089F8922449004FF00050E0
:103570004FF08051FFF7CABE4FF47F0C1CEAD01207
:103580001EBF1CEAD11392EA0C0F93EA0C0F00F055
:10359000478090EA010F48BF42F480724FF0004C20
:1035A0004CEA00204CEA012102EB0302A0FB0113CC
:1035B000A2F50002002918BF43F001035B0028BFF9
:1035C0004FEA330342EB22425FEA132C4CEBC2502A
:1035D0002EBFBCEB436FB2F57C0F70474FEA036C14
:1035E000BCF1004F08BF20F00100B2F57C0F38BFDE
:1035F00070470BD582F0FF0212F5803FC8BF7047BD
:1036000000F1C040D8BF00F00040704700F5000C4A
:103610005FEA4C0C48BF7047B0F1C04000F073B88F
:1036200090EA010F0CEAD11348BF42F48072624560
:1036300038BF634504D280EA010000F000407047C3
:1036400010B500F01AF800BF8900013E00F007B87D
:1036500000F009B85FEA410C5FEA1C6C08D080EA10
:10366000010000F050B85FEA400C5FEA1C6CF6D134
:103670004FF00040A0F5800070470EF1020E2EF0D2
:10368000030E5EF8044B244204D44FEA4102B2F127
:103690007F4F11D84FEA4003B3F17F4F0CD80ED1C2
:1036A0004FEAD07CB2F17F4F0CEB4C0C0CF1020CCA
:1036B00008BF4CEBD17C04E04FF0080C01E04FEA6E
:1036C000D17C0CEB4C0324FA03F404F00704B4F1AE
:1036D000040C06D20EEB840CBDE810404CF0010C3B
:1036E0006047DFE80CF0070802024FF00040A0F549
:1036F000800010BD0846420018BFD2F1807288BF1A
:1037000000F0004010BDFF2141EAD050C0057047D5
:103710005FEA400C5FEA1C6CBCF17F0314D4D3F168
:10372000170240F31C804FF0010C0CFA02FCACF1C4
:1037300001030340B3EB5C0220EA030008BF10EA78
:103740000C0F88BF60447047B3F1FF3F28BF5FEAAA
:10375000002C00F0004088BF40F07E507047BCF164
:10376000FF0FB8BF704710B5FFF787FF40DBB6BE4D
:1037700080F0004090EA010F7FF567AD81F00041D5
:1037800000F007B890EA010F48BF81F000413FF513
:103790005CAD421A04D882F00042A0EB0200114452
:1037A0004FEAD0524FF07F4C1CEA410FA2EBD153AD
:1037B00018BF9CEA026F4AD04FF0004C4CEA002040
:1037C0004CEA012121FA03FCB0EB0C0C0FD412F0EF
:1037D000FE0F36D05FEA4C001DD5001240EBC25000
:1037E00038BF70471CF03F0F18BF70470BE0A2F1C5
:1037F00001025FEA1C2040EBC25038BF70471CF04A
:103800007F0F18BF7047C3F12003994014BF401EBB
:1038100020F00100704780084FEA122308BF70476C
:10382000B0FA80FCA2EB0C02CCF1280C60FA0CF090
:1038300093EA122F04BF00EBC25070474FEAC370E7
:103840007047130A5FEADC1008BF7047F6E79CEA8E
:10385000026F04D010EA5C0F08BF0020704710B55B
:10386000FFF70BFF40DFF63E81F0004070470CF0A1
:103870000F03092B08BF082000F051800A2B0BD042
:10388000082B18BF704708BF1CF0400F0AD04FF03C
:1038900000004FF0000170471CF0400F18BF4FF0C0
:1038A000004070471CF0100F08D020F0704300F06B
:1038B0007F4242EAD3014FEA4370704700F0604014
:1038C00021F07F4242EA000201F07F4040EA72703C
:1038D00070474FF0FF0212EAD0521CBF92F0FF0374
:1038E0008B42C2BFD14200EBC1507047002A0AD0C0
:1038F000002B0BD0002900F00040A4BF40F0FE4098
:1039000040F40000704700F00040704743024FF061
:103910000B0C18BF4CF0806C7FF4F2AC70471CF4B9
:10392000801F11D01CF4E02F03D06FEACC31490086
:1039300070474FF04050EFF3008222F0704242EAAD
:10394000000282F3008870474FF0000070470000CB
:103950000000803F0030983F0000B53F0040D73F57
:1039600000000000320A7E397F661E395B991F39DC
:103970000000803FF037983FF304B53FFD44D73F48
:10398000A039000800000020941400006C01000819
:10399000883E0008941400200C4F0000D00100085D
:1039A00040120003050911FF118905C300E000F072
:1039B00000F8000100083A4428FF11AA4400015011
:1039C0000B830138448292927401831120087C4455
:1039D000FF017D7D7D04410540047D01FF6E920164
:1039E00002613F033B01017E81419149F2010101E6
:1039F0001BC230083F3F0303F3131101100601F10E
:103A0000116181402005816111F147334141072057
:103A10000401C12120A321C1143119313704073613
:103A2000D33303033F3F426006E0E000007FA8126B
:103A30007FBF40040618060A1008000040407F407F
:103A400040A410041F204001A3201F143300600E67
:103A50006004300C03460534C210040707060170E9
:103A60000904040484444444840780050484C40491
:103A70001501120A71112140073D0707C9200F00E7
:103A800000101814121100000F1010100F0F131F48
:103A90001015600D081012120D00001800000D1214
:103AA0000A51295130015E01528001013B45140445
:103AB0007F030CA915DE1C05385454582503080A49
:103AC0002004047800003C40407C2000092CFFAA20
:103AD000AAAA280800FF6810062649494932101092
:103AE00005020408100F0D6F00049D01040D9D00D8
:103AF00004156343F80801240500F81860E824045D
:103B0000806018235720202923E01021A310E014FF
:103B100049B4313908043C886818630D15FF037DEA
:103B2000EA039DFF0371144DFF031D06043D2E049F
:103B30000942E91C0640202020C04A04110721EA5E
:103B40003E40520452600E8118712951070D476999
:103B5000031C060C0A0A090C0004156B2D00042036
:103B600004080F081510050809090E071D18043070
:103B7000050909090F0A512951070DFF00040D22FB
:103B80000004093411101240206060E0E0E0F0F021
:103B9000F0F8B8B8B8F8F8F80A04043DE0E0C00C52
:103BA0000D2F2207B006C0F3F3FBFF0100075FFEF5
:103BB0001010E0C0C0788011C0F0FCFCFEFBFBD709
:103BC000B7B7FFDFDFFFFEFE81133F3F05015777E9
:103BD0001572A00B783838F6FFFFAFAFAFBFF81300
:103BE000EFEF0F0C104C7FEFEF3F3F3F333030389B
:103BF0001818080404EA061783835F3EFD61043049
:103C00000B5FEDEDEEF7F77BBFBFEFF10C08593F0F
:103C10000F0F0F0303036A032404031F1F5771646C
:103C20004404FBFBFD740004747F7F0001257400D5
:103C30000475C3C3FF7E1D0C0915120005D20F0FBA
:103C40001000011A80E83D5B042101C2FC0131141F
:103C50005D6D048130712F0218FC2F0E23C0A8095E
:103C6000000527F8FCFEFF0100072AFEFC70303833
:103C70007E300A1FF8EA0004100F3F7F6910057FAD
:103C80003F3F1F1860073F0F0787071F081C06FFED
:103C90007F1F0380230C220F211E1F8403021D3F60
:103CA000AF0C04267F3F0FA5037408040C0C1C3CCA
:103CB0003C7C4F1C04FEFEFEEC0513F0FCF41409E2
:103CC000F0E0E1E0F8FEFFFC54211022FCB4328168
:103CD0001235AE9406F0E1E3E3F1B60C08367C7CD5
:103CE0003C3C1C0C0C8D0428080101030307070F42
:103CF000EF0404113F7F7F1B1182B5B3167F2C1791
:103D00003F1F0F0C074F0707030301018B044201FC
:103D10009211933194416C116D316E0D30B40E904F
:103D200004E0E0A001B10D71150E86E09803410199
:103D300022C0013EE0FE0721060F47E0D0F7074111
:103D40005C2C05E0E020305D0A410122306336C67C
:103D5000713207010C08100F8F8FCFCFEFEF5B038D
:103D60001FE0A0120F0E3F807B043C04C0E06041C6
:103D7000072101680538707070652D04030D161C4D
:103D8000040C0B3C7FBF7FF7C70F19112202750788
:103D90001B040E490E110204030F120F1F17045DBE
:103DA00001031C05FBE7CA8443111F0302F3070E3E
:103DB000590886072F010389032D88030D12DC049F
:103DC0002EFE9D05FC04F0E080240B0D4F780B7E49
:103DD00078F1036D12045FDF9F86033F03012E0419
:103DE00020040E0E1E01421F9721992C0738686887
:103DF0004848482D0D0A4340A71C04E1F1736904AB
:103E000020099FDEECF0F83C3F1F7A0D10401212A3
:103E10003C9E0C0E3D8F1F3F5F3F7F6FCE8D96AA5D
:103E20000210930930070C0C0C0E0E0EE630060142
:103E300000020203010D1F40050E270252134C041D
:103E4000414243F30F7FA24AAF05EC09010203048C
:103E5000060708099C120C1A29CF3F065B4F666DB6
:103E60007D077F6F777C395E797108484976380E17
:103E7000503744096005F401F401646168000500ED
:083E8000020406080000000026
:0400000508000131BD
:00000001FF
