:020000040800F2
:100000007010002045010008FF1A0008871A000838
:10001000FD1A0008530700086F23000800000000C5
:100020000000000000000000000000005701000870
:1000300055070008000000005B010008151E0008BD
:100040005F0100085F0100085F0100085F01000810
:100050005F0100085F0100085F0100085F01000800
:100060005F0100085F0100085F0100085F010008F0
:100070005F0100085F0100085F0100085F010008E0
:100080005F0100085F0100085F0100085F010008D0
:100090005F0100085F0100085F0100085F010008C0
:1000A0005F0100085F0100085F010008C91E000829
:1000B0005F0100085F0100085F0100085F010008A0
:1000C0005F0100085F0100085F0100085F01000890
:1000D0005F0100085F0100085F0100085F01000880
:1000E0005F0100085F0100085F0100085F01000870
:1000F0005F0100085F0100085F0100085F01000860
:100100005F0100085F0100085F0100085F0100084F
:100110005F0100085F0100085F0100085F0100083F
:100120005F0100085F0100085F0100085F0100082F
:10013000DFF80CD000F0ECFA004800479D230008DF
:10014000701000200648804706480047FEE7FEE79B
:10015000FEE7FEE7FEE7FEE7FEE7FEE7FEE7FEE777
:10016000811E000831010008202A04DB203A21FA10
:1001700002F00021704721FA02F3D040C2F12002C0
:10018000914008431946704780EA010210B502F019
:100190000043400022D04A001FD0010E01EB126143
:1001A000C0F35600C2F3560240F4000042F40002CD
:1001B000A0FB022000047F39140400D0401C50EA48
:1001C000124001D44000491EC2B20C0604EBD0100C
:1001D000401C4008802A02D003E0002010BD20F01F
:1001E0000100002900DA0020184310BD30B480EA75
:1001F000010202F0004530F0004221F0004013D02F
:1002000090B1C30DD40DC2F31601C0F31600E41A69
:1002100041F4000140F400027D34914201D3641C9A
:1002200000E04900002C02DA30BC002070474FF497
:1002300000000023914201D3891A034340084FEA8A
:100240004101F7D151B1914202D14FF0004105E097
:1002500002D24FF0010101E06FF0010103EBC45045
:10026000284430BC00F06EB92DE9FE4F81EA03044A
:1002700004F0004421F0004100944FF0000B23F003
:10028000004350EA01045ED052EA03045BD0C3F39A
:100290000A54C1F30A552C44A4F2F3340194A0FB90
:1002A0000254C1F3130141F48011C3F3130343F467
:1002B000801301FB024400FB034E840A970A44EAC0
:1002C000815447EA8357A4FB076802958D0A05FB12
:1002D00007854FEA932C04FB0C542705029D4FEA37
:1002E000065847EA1637B5EB08056EEB070C870E84
:1002F000920E47EA811742EA8312A7FB0201B6EB8E
:100300000B0164EB00042B0D43EA0C335E1844EB45
:100310001C50DA465146E7FB0201C5F313044FEACD
:100320000B3343EA14534FEA0432019C43EA0603B9
:10033000A4F10C040294009CCDE900B400F048F94B
:1003400003B0BDE8F08F00200146F9E72DE9F04D3C
:1003500081EA030404F0004B21F0004514464FF0FD
:10036000000A23F0004150EA050220D054EA0102BD
:100370001DD0C5F30A570246C5F31303C1F313009A
:10038000C1F30A5640F4801543F48013A7EB060826
:10039000101BD64608F2FD3873EB050002D308F1B6
:1003A000010801E092185B41B8F1000F03DA002068
:1003B0000146BDE8F08D00204FF4801106468446CA
:1003C0000EE0171B73EB050705D3121B63EB050348
:1003D00006434CEA010C49084FEA300092185B4191
:1003E00050EA0107EDD152EA030012D082EA04007C
:1003F00083EA0501084305D0101BAB4106D2012258
:10040000002306E000224FF0004302E06FF00102FB
:1004100053101AEB06004CEB085110EB0A0041EBAD
:100420000B01BDE8F04D00F0C4B896230022114640
:1004300000F091B80EB540F2334102910021CDE9B0
:1004400000110A460B4600F0C3F803B000BD00F0EF
:10045000004220F00040C10DC0F3160040F400003F
:100460007F2901DA00207047962903DCC1F196014B
:10047000C84001E096398840002AF4D040427047D5
:1004800020F00040C10DC0F3160040F400007F29A9
:1004900001DA00207047962903DCC1F19601C840BB
:1004A000704796398840704770B5C1F30A5201F021
:1004B00000450024C1F3130140F2FF3341F48011E1
:1004C0009A4201DA002070BD40F233439A42A2F210
:1004D000334203DC5242FFF747FE00E090402C43DA
:1004E000F1D0404270BD00F0004230F000400AD030
:1004F000C10D01F56071C0F3160042EA0151C20856
:1005000040071143704700200146704701F0004347
:1005100030B421F0004150EA010206D00A0DA2F5E4
:100520006072C1F31301002A02DC30BC0020704766
:10053000440F44EAC104C100E01830BC00EBC250D3
:10054000AFF300800029A8BF7047401C490008BFD6
:1005500020F00100704710B4B0FA80FC00FA0CF0F3
:1005600050EA010404BF10BC704749B1CCF120042B
:1005700021FA04F411FA0CF118BF012121430843B8
:10058000A3EB0C01CB1D4FEA00614FEA102042BFE4
:10059000002010BC704700EBC35010440029A4BFDA
:1005A00010BC7047401C490008BF20F0010010BC7F
:1005B000704710B5141E73F1000408DA401C41F1B5
:1005C000000192185B411A4301D120F0010010BDD7
:1005D0002DE9F04D92469B4611B1B1FA81F202E04D
:1005E000B0FA80F22032904600F0A4F804460F469C
:1005F00040EA0A0041EA0B0153465A46084313D029
:10060000114653EA010019D0C8F140025046FFF7E5
:10061000ABFD05460E4650465946424600F08AF864
:10062000084305D0012004E020463946BDE8F08D9E
:100630000020054346EAE0762C4337430A986305D9
:10064000E40AA0EB08000022FD0A44EA47540A30FD
:1006500002D500200146E9E7010510196941DDE9ED
:10066000084500196941BDE8F04DA2E72DE9F04DBC
:1006700000231A461B1A8A4103DB00200146BDE80D
:10068000F08DC1F30A52C1F3130141F480154FF00C
:10069000000BD10702D100186D41521E00270446FD
:1006A00040F2FF11384601EB620A3E4680460246A0
:1006B00000204FF48011FFF757FDC2197141BB189C
:1006C00046EB0100B4EB030C75EB000C04D3E41A09
:1006D00065EB000517460E46241908F101006D412F
:1006E00080463428E3DDF91946EB0600091BA841D2
:1006F00003D24FF0FF32134601E0002213461BEBFA
:10070000070046EB0A51BDE8F04DFFF752BF00006D
:10071000064C074D06E0E06840F0010394E807004E
:1007200098471034AC42F6D3FFF706FD28240008A2
:1007300048240008202A04DB203A00FA02F10020B5
:1007400070479140C2F1200320FA03F3194390400F
:100750007047FEE7FEE731B500F01CF9044600F0F3
:1007600019F90099001B8842F9D338BD2DE9F84FDB
:1007700000239C46DFF8F4810F2708F1040909F1F2
:10078000040A0AF1040B012202FA0CF60A6832404C
:10079000B2427CD1DFF8D8E14C68A4EB0E05744579
:1007A0002BD00DDC032C34D005DC34B3012C19D054
:1007B000022C2FD11BE0112C16D0122C2AD119E0BB
:1007C000B5F5881F19D006DCB5F5803F15D0B5F515
:1007D000801F1FD111E0B5F5001F0ED0B5F5041F25
:1007E00018D10AE0CB6815E0CB681B1D12E0CB687E
:1007F00008330FE0CB680C330CE08B6823B1012B7E
:1008000004D00823466105E0042303E008230661C1
:1008100000E00023B2F5807F01D2054601E000F13F
:10082000040502D24FEA8C0403E0ACF108044FEA5D
:1008300084042E6807FA04FE26EA0E0603FA04F47E
:1008400046EA04042C604C6814F0805F1FD0494CC9
:10085000A56945F00105A561A46904F001040094AF
:100860002CF0030404F1804404F58034A6684FEAB8
:100870008C754FEA157507FA05FE26EA0E0EA0F1F3
:100880008046B6F584362AD0A0F1804600E065E0C7
:10089000B6F5863625D0A0F18046B6F5883622D04A
:1008A000A0F18046B6F58A361FD0A0F18046B6F595
:1008B0008C361CD0A0F18046B6F58E3619D00626AF
:1008C00006FA05F545EA0E05A5604C6814F4803F6C
:1008D00011D0D8F800401443C8F8004010E00026BA
:1008E000EEE70126ECE70226EAE70326E8E704261E
:1008F000E6E70526E4E7D8F800409443C8F800404E
:100900004C6814F4003F05D0D9F800401443C9F8EE
:10091000004004E0D9F800409443C9F800404C6816
:1009200014F4801F05D0DAF800401443CAF80040E0
:1009300004E0DAF800409443CAF800404C6814F42C
:10094000001F05D0DBF800402243CBF8002005E073
:10095000DBF8004024EA0202CBF800200CF1010C85
:10096000BCF1100FFFF40FAFBDE8F88F0004014099
:1009700000001110001002408068084201D00120E0
:10098000704700207047002A01D0016170470904B8
:1009900001617047014800687047000004000020B2
:1009A00002480168491C01607047000004000020F3
:1009B00010B50748016841F010010160032000F004
:1009C00089F8002000F006F800F016F8002010BDAD
:1009D0000020024010B5044600F01EFA4FF47A726F
:1009E000B0FBF2F000F05AFF00222146501E00F04A
:1009F0003DF8002010BD000008B51548816941F0A0
:100A000001018161806900F001000090052000F083
:100A100061F8002211466FF00B0000F027F8002269
:100A200011466FF00A0000F021F8002211466FF025
:100A3000090000F01BF800221146101F00F016F804
:100A40000022BDE808401146501E00F00FB800001B
:100A50000010024000F01F01012202FA01F14009DA
:100A6000800000F1E020C0F80011704710B4184B6E
:100A70001B68C3F30223C3F1070CBCF1040F01D9B7
:100A80004FF0040C1C1D072C01D2002300E0DB1EDC
:100A9000012404FA0CFCACF1010C0CEA01019940B0
:100AA00004FA03F35B1E1A401143002808DA00F031
:100AB0000F0000F1E020090180F8141D10BC704700
:100AC00000F1E020090180F8001410BC704700001C
:100AD0000CED00E000F00700064A11684FF6FF0336
:100AE000194041EA002040F0FD7040F08060106045
:100AF000704700000CED00E02DE9F04704460F467A
:100B0000DFF80C93D9F80000012200F0070053042D
:100B10000226C04D4FF0007C41F28838B8427DD2A9
:100B2000D9F8000020F007003843C9F80000D9F8D0
:100B3000000000F00700B84202D00120BDE8F087B5
:100B4000207810F0020F05D06868A16820F0F0004E
:100B500008436860207810F0010F00F03D81606864
:100B600001280BD0022820D096FAA6F1B1FA81F123
:100B700041F0200149092FD029682EE093FAA3F112
:100B8000B1FA81F141F02001490901D0296800E062
:100B9000696A93FAA3F3B3FA83F303F01F039A404D
:100BA000114226D10120BDE8F0879CFAACF1B1FAE0
:100BB00081F141F02001490901D0296800E0696A0A
:100BC0009CFAACF3B3FA83F303F01F039A4011428B
:100BD0000FD10120BDE8F087696A96FAA6F3B3FA4F
:100BE00083F303F01F039A40114202D10120BDE8B4
:100BF000F087696821F0030108436860FFF7CAFEC7
:100C00000646606801280FD0022820D0686810F0DE
:100C10000C0F72D0FFF7BEFE801B00E02FE04045B6
:100C200028D90320BDE8F087686800F00C0004288C
:100C300063D0FFF7AFFE801B404502D90320BDE81B
:100C4000F087686800F00C000428F2D1C4E06868FE
:100C500000F00C00082850D0FFF79CFE801B404598
:100C600002D90320BDE8F087686800F00C0008286E
:100C7000F2D1B1E0686810F00C0FCBD1ACE0207875
:100C800010F0020F05D06868A16820F0F00008435A
:100C90006860207810F0010F70D0606801280BD0D8
:100CA000022820D096FAA6F1B1FA81F141F0200194
:100CB000490930D029682FE093FAA3F1B1FA81F104
:100CC00041F02001490901D0296800E0696A93FADE
:100CD000A3F3B3FA83F303F01F039A40114227D121
:100CE0000120BDE8F0879CFAACF1B1FA81F141F046
:100CF0002001490902D0296801E06DE0696A9CFA87
:100D0000ACF3B3FA83F303F01F039A4011420FD1FF
:100D10000120BDE8F087696A96FAA6F3B3FA83F377
:100D200003F01F039A40114202D10120BDE8F08771
:100D3000696821F0030108436860FFF72BFE06464F
:100D4000606801280DD002281FD0686810F00C0FD1
:100D500032D0FFF71FFE801B404529D90320BDE894
:100D6000F087686800F00C00042825D0FFF712FE19
:100D7000801B404503D90320BDE8F0871CE068686C
:100D800000F00C000428F1D116E0686800F00C00B7
:100D9000082811D0FFF7FEFD801B404502D9032033
:100DA000BDE8F087686800F00C000828F2D103E085
:100DB000686810F00C0FCCD1D9F8000020F00700C3
:100DC0003843C9F80000D9F8000000F00700B84225
:100DD00002D00120BDE8F087207810F0040F05D084
:100DE0006868E16820F4E06008436860207810F0EB
:100DF000080F06D06868216920F4605040EAC100FD
:100E000068600020FFF7E6FD0020BDE8F0870000E5
:100E1000002002400010024010B500F017F8084909
:100E20004968F02292FAA2F201F0F001B2FA82F2DD
:100E3000D140044A515CC8400349086010BD00001D
:100E400000100240182400080000002085B01DA0FA
:100E5000036882684168C06801930392029104901C
:100E60001CA0006800901C4B59681C4801F00C0243
:100E7000042A21D0082A1FD14FF4701C9CFAACFC24
:100E800001F47012BCFA8CFC22FA0CF20DF1040C85
:100E90001CF8022011F4803F10D059684FF4003341
:100EA00093FAA3F301F40031B3FA83F3D9401DF8A8
:100EB0000110B0FBF1F0504305B07047084805B091
:100EC0005043704702030405060708090A0B0C0D7E
:100ED0000E0F1010010200000010024000127A00F4
:100EE00000093D002DE9F84F0446FA4D20784FF0F7
:100EF000010610F0010F00F000816868770400F02F
:100F00000C00042808D0686800F00C0008281ED1E6
:100F1000686810F4803F1AD097FAA7F0B0FA80F012
:100F200040F02000400901D0286800E0686A97FA84
:100F3000A7F1B1FA81F101F01F0106FA01F10842AF
:100F400070D0606800286DD10120BDE8F88F286856
:100F500020F480302860286820F480202860FFF783
:100F600019FD804697FAA7F0B0FA80F040F0200013
:100F7000400901D0286800E0686A97FAA7F1B1FA41
:100F800081F101F01F0106FA01F108421DD0FFF7BF
:100F900001FDA0EB0800642802D90320BDE8F88F0A
:100FA00097FAA7F0B0FA80F040F02000400901D095
:100FB000286800E0686A97FAA7F1B1FA81F101F0B8
:100FC0001F0106FA01F10842E1D16068B0F5803FE7
:100FD0001AD0F0B1B0F5A02F25D0286820F48030C9
:100FE0002860286820F4802028606068C0B3FFF77C
:100FF000D1FC804697FAA7F0B0FA80F040F02000CC
:10100000400919D0286818E0286840F4803028602A
:10101000EBE7286820F480302860286820F48020DE
:101020002860E2E769E0286840F4802028602868AA
:1010300040F480302860D8E7686A97FAA7F1B1FADF
:1010400081F101F01F0106FA01F1084255D1FFF7C5
:10105000A1FCA0EB0800642803D90320BDE8F88FA9
:1010600015E097FAA7F0B0FA80F040F020004009B0
:1010700001D0286800E0686A97FAA7F1B1FA81F117
:1010800001F01F0106FA01F10842E0D035E0FFF758
:1010900081FC804697FAA7F0B0FA80F040F020007B
:1010A000400901D0286800E0686A97FAA7F1B1FA10
:1010B00081F101F01F0106FA01F108421DD0FFF78E
:1010C00069FCA0EB0800642802D90320BDE8F88F72
:1010D00097FAA7F0B0FA80F040F02000400901D064
:1010E000286800E0686A97FAA7F1B1FA81F101F087
:1010F0001F0106FA01F10842E1D120784FF0000803
:1011000010F0020F4FF002074ED068684FF0F80A57
:1011100010F00C0F21D0686800F00C00082803D1F3
:10112000686810F4803F18D0206988B396FAA6F05A
:10113000B0FA80F0800000F1844000F58400066081
:10114000FFF728FC814697FAA7F0B0FA80F040F04C
:101150002000400929D0286828E097FAA7F0B0FAC3
:1011600080F040F02000400901D0286800E0686A63
:1011700097FAA7F1B1FA81F101F01F0106FA01F126
:10118000084206D02069012803D00120BDE8F88F6D
:1011900040E028689AFAAAF26169B2FA82F220F075
:1011A000F80091400843286075E0686A97FAA7F153
:1011B000B1FA81F101F01F0106FA01F108421DD1D7
:1011C000FFF7E8FBA0EB0900022802D90320BDE8E5
:1011D000F88F97FAA7F0B0FA80F040F020004009AD
:1011E00001D0286800E0686A97FAA7F1B1FA81F1A6
:1011F00001F01F0106FA01F10842E1D028689AFACD
:10120000AAF26169B2FA82F220F0F8009140084334
:10121000286040E096FAA6F0B0FA80F0800000F175
:10122000844000F58400C0F80080FFF7B3FB8146DE
:1012300097FAA7F0B0FA80F040F02000400901D002
:10124000286800E0686A97FAA7F1B1FA81F101F025
:101250001F0106FA01F108421DD0FFF79BFBA0EB2E
:101260000900022802D90320BDE8F88F97FAA7F0F9
:10127000B0FA80F040F02000400901D0286800E07A
:10128000686A97FAA7F1B1FA81F101F01F0106FA35
:1012900001F10842E1D1207810F0080F60D0A06978
:1012A000C8B396FAA6F0B0FA80F0800000F184404E
:1012B00000F58400C0F88064FFF76CFB814697FA64
:1012C000A7F0B0FA80F040F06000B6EB501F03D1F9
:1012D00028680DE00010024097FAA7F0B0FA80F0FD
:1012E00040F06000B7EB501F01D1286A00E0686A47
:1012F00097FAA7F1B1FA81F101F01F0106FA01F1A5
:1013000008422AD1FFF746FBA0EB0900022803D9C7
:101310000320BDE8F88F24E097FAA7F0B0FA80F038
:1013200040F06000B6EB501F01D128680BE097FA3F
:10133000A7F0B0FA80F040F06000B7EB501F01D189
:10134000286A00E0686A97FAA7F1B1FA81F101F022
:101350001F0106FA01F10842D4D00120FFF7FBF982
:1013600058E096FAA6F0B0FA80F0800000F18440D0
:1013700000F58400C0F88084FFF70CFB814697FAE3
:10138000A7F0B0FA80F040F06000B6EB501F01D13A
:1013900028680BE097FAA7F0B0FA80F040F0600000
:1013A000B7EB501F01D1286A00E0686A97FAA7F1ED
:1013B000B1FA81F101F01F0106FA01F1084229D0CA
:1013C000FFF7E8FAA0EB0900022802D90320BDE8E4
:1013D000F88F97FAA7F0B0FA80F040F06000B6EB13
:1013E000501F01D128680BE097FAA7F0B0FA80F0FF
:1013F00040F06000B7EB501F01D1286A00E0686A36
:1014000097FAA7F1B1FA81F101F01F0106FA01F193
:101410000842D5D1207810F0040F72D0E86940F06E
:101420008050E861E86900F080500090DFF848A43F
:10143000DAF8000040F48070CAF80000FFF7AAFA5A
:101440008146DAF8000010F4807F0DD1FFF7A2FA90
:10145000A0EB0900642802D90320BDE8F88FDAF870
:10146000000010F4807FF1D0286A20F0010028628B
:10147000286A20F004002862FFF78CFA814697FA68
:10148000A7F0B0FA80F040F04000B6EB501F01D159
:1014900028680BE097FAA7F0B0FA80F040F040001F
:1014A000B7EB501F01D1286A00E0686A97FAA7F1EC
:1014B000B1FA81F101F01F0106FA01F1084241F28F
:1014C000883A2AD0FFF766FAA0EB0900504502D906
:1014D0000320BDE8F88F97FAA7F0B0FA80F040F04B
:1014E0004000B6EB501F01D128680CE097FAA7F036
:1014F000B0FA80F040F04000B7EB501F02D1286AEC
:1015000001E0CFE0686A97FAA7F1B1FA81F101F042
:101510001F0106FA01F10842D4D1E06801281AD06F
:10152000F0B1052825D0286A20F001002862286A39
:1015300020F004002862E06878B3FFF72BFA8146B8
:1015400097FAA7F0B0FA80F040F04000B6EB501FD9
:1015500018D1286823E0286A40F001002862EAE7F1
:10156000286A20F001002862286A20F0040028621E
:10157000E1E7286A40F004002862286A40F0010090
:101580002862D8E797FAA7F0B0FA80F040F0400060
:10159000B7EB501F02D1286A01E035E0686A97FA7C
:1015A000A7F1B1FA81F101F01F0106FA01F1084239
:1015B00078D1FFF7EFF9A0EB0900504502D90320DD
:1015C000BDE8F88F97FAA7F0B0FA80F040F040003D
:1015D000B6EB501F01D128680BE097FAA7F0B0FADC
:1015E00080F040F04000B7EB501F01D1286A00E0C6
:1015F000686A97FAA7F1B1FA81F101F01F0106FAC2
:1016000001F10842D5D04DE0FFF7C4F9814697FAC1
:10161000A7F0B0FA80F040F04000B6EB501F01D1C7
:1016200028680BE097FAA7F0B0FA80F040F040008D
:10163000B7EB501F01D1286A00E0686A97FAA7F15A
:10164000B1FA81F101F01F0106FA01F1084229D037
:10165000FFF7A0F9A0EB0900504502D90320BDE82F
:10166000F88F97FAA7F0B0FA80F040F04000B6EBA0
:10167000501F01D128680BE097FAA7F0B0FA80F06C
:1016800040F04000B7EB501F01D1286A00E0686AC3
:1016900097FAA7F1B1FA81F101F01F0106FA01F101
:1016A0000842D5D1E069D0B3696801F00C0108297E
:1016B0007ED04FF0807A4FF00079022817D09AFA46
:1016C000AAF0B0FA80F0800000F1844000F58400B8
:1016D000C0F80080FFF75EF9044699FAA9F0B0FA65
:1016E00080F040F0200040097ED0286897E09AFA08
:1016F000AAF0B0FA80F0800000F1844000F5840088
:10170000C0F80080FFF746F9074699FAA9F0B0FA49
:1017100080F040F02000400902D0286801E0A5E0F8
:10172000686A99FAA9F1B1FA81F101F01F0106FA8C
:1017300001F108421CD0FFF72DF9C01B022802D985
:101740000320BDE8F88F99FAA9F0B0FA80F040F0D4
:101750002000400901D0286800E0686A99FAA9F1E0
:10176000B1FA81F101F01F0106FA01F10842E2D15C
:10177000206AB0F5803F05D16868A16820F4003088
:1017800008436860616A206A0843696821F474113B
:10179000084368609AFAAAF0B0FA80F0800000F17D
:1017A000844000F584000660FFF7F4F8044600E08A
:1017B0005FE099FAA9F0B0FA80F040F0200040090B
:1017C00001D0286800E0686A99FAA9F1B1FA81F1BC
:1017D00001F01F0106FA01F1084247D1FFF7DAF8DC
:1017E000001B022804D900E018E00320BDE8F88FB0
:1017F00099FAA9F0B0FA80F040F02000400901D039
:10180000296800E0696A99FAA9F0B0FA80F000F05E
:101810001F0006FA00F00142E0D027E0686A99FA5A
:10182000A9F1B1FA81F101F01F0106FA01F10842B4
:101830001CD0FFF7AFF8001B022802D90320BDE837
:10184000F88F99FAA9F0B0FA80F040F02000400932
:1018500001D0296800E0696A99FAA9F0B0FA80F02D
:1018600000F01F0006FA00F00142E2D10020BDE8BE
:10187000F88F0120BDE8F88F007000404FF0E021A4
:10188000042804D0086920F0040008617047086942
:1018900040F004000861704770470000401EB0F13E
:1018A000807F01D3012070474FF0E0214861044A56
:1018B000F020107000208861072008610020704728
:1018C00023ED00E010B5FFF7E7FF10BD10B50446AB
:1018D000002C03D094F8390010B107E0012010BDAE
:1018E000002084F83800204600F00CF8022084F82C
:1018F0003900211D206800F0D3FB012084F8390055
:10190000002010BD7047022180F8391001680A6874
:1019100042F001020A60012180F83910002070476E
:1019200070B5044694F83800012818D0012584F8D1
:101930003850022084F839002068826822F077024B
:1019400022F47F428260086850283AD00EDC2028BA
:101950005FD006DC002852D0102863D154E002206A
:1019600070BD30285AD040285CD13EE0602832D08B
:1019700070280CD0B0F5805F03D0B0F5005F51D176
:1019800013E02068816821F0070181604AE0CB689C
:101990004A688968206800F0D6FB2068816821F0D9
:1019A000770141F0770181603CE0CB684A68896843
:1019B000206800F0C8FB2068816841F480418160A4
:1019C00030E0CA684968206800F0ACFC502120680B
:1019D00000F0C4FB26E0CA684968206800F0B5FC46
:1019E0006021206800F0BAFB1CE0CA6849682068E2
:1019F00000F098FC4021206800F0B0FB12E00021CC
:101A0000206800F0ABFB0DE01021206800F0A6FB81
:101A100008E02021206800F0A1FB03E030212068CD
:101A200000F09CFB84F83950002084F8380070BD29
:101A300070B5044694F8380001280DD0012584F8CB
:101A40003850022084F8390042B1042A0AD0082A0A
:101A50000CD00C2A11D10DE0022070BD206800F0DE
:101A600085FB0AE0206800F0B9FB06E0206800F082
:101A7000F1FB02E0206800F029FC84F839500020D6
:101A800084F8380070BDFEE710B50D4C01212046EA
:101A9000FEF772FF012808D11420FEF75CFE012139
:101AA0002046FEF769FF012801D0002010BD01216A
:101AB0002046FEF761FF0128F9D0012010BD00008B
:101AC0000008014000B587B00A48816941F004016F
:101AD0008161806900F004000190012002900020E3
:101AE00003900220049002A90348FEF73FFE07B0CE
:101AF00000BD00000010024000080140FEE77047F2
:101B00002DE9FF4F83B0DFF894B103980127644EAD
:101B10004FF00009002809DA77700022790358464F
:101B2000FEF731FF03984042039006E086F80190EB
:101B3000012251035846FEF726FF03984FF0FF3A63
:101B4000012858D0039800285CD00698FEF76DFC59
:101B5000DFF850810446D8F800008008FEF765FCE5
:101B60005149FEF711FB2146FEF740FBFEF76FFCE3
:101B700030610498FEF759FC01464C48FEF736FBED
:101B8000FEF7B1FC00F022FC0446D8F800000D4638
:101B90008008FEF74FFC464A464BFEF765FBDFF830
:101BA000188100224346FEF7D1FBFEF7AFFCFEF79B
:101BB0009AFC22462B46FEF757FB00224346FEF7CF
:101BC000C5FBFEF771FC70600498FEF72EFC3B49E4
:101BD000FEF7DAFA3A49FEF709FB04460698404355
:101BE000FEF723FC2146FEF701FBFEF749FC0190BE
:101BF000019840B108E0C6F814A0022030704FF4FC
:101C00007A70706031E0019705990398059A48430E
:101C100004991144B0FBF1F00090009800B90097CE
:101C200001990098884204D803990098401AF060FE
:101C300007E00499019848430599B0FBF1F0404250
:101C4000F060F06808B9C6F80CA0F0680399084481
:101C5000B06070683169884204DC306970600320CC
:101C6000307000E03770C6F81490164807701648B8
:101C70000068416A02917168BDF80820114441630F
:101C800001220021114800F051FA07B05846BDE882
:101C9000F04F01229103FEF776BE0000000C0140D8
:101CA0001C0000200000002072D9203C70594443E1
:101CB0006F1283C0CAA1E53F00002440CF0F493E08
:101CC000000020410800002034000020002C0140CA
:101CD00070B586B02148816941F004018161816954
:101CE00001F004010191816941F00801816181697C
:101CF00001F008010191816941F008018161806969
:101D000000F0080001904FF48070029012200390C0
:101D10000324059402A91248FEF728FD114E012262
:101D200051033046FEF72FFE7114029111250395E1
:101D3000059402A93046FEF719FD00224FF48041B8
:101D40003046FEF720FE4FF4804102910395059442
:101D500002A93046FEF70AFD06B070BD0010024031
:101D600000080140000C0140F0B58DB026488169A3
:101D700041F400618161806900F400600090FFF728
:101D8000A7FF234C214F2760032060600025A5603A
:101D90004FF6FF76E66025612046FFF797FDB81401
:101DA000089008A92046FFF7BBFD3020019002965D
:101DB00002200390082004900595069507950022BF
:101DC00001A92046FFF734FE00221146384600F0F4
:101DD000ADF9002211461B20FEF748FE1B20FEF73E
:101DE00039FE2168E81E08612068C16841F00201DF
:101DF000C1602068416C41F4004141642046FFF716
:101E000082FD0DB0F0BD000000100240002C01402A
:101E10003400002010B5FEF7C3FDBDE81040FFF709
:101E200051BD30B591B00120069000040790002408
:101E3000089402250D950E904FF4E0100F9006A81F
:101E4000FFF750F80F200190029503946802049068
:101E50000594022101A8FEF74FFEFEF7DDFF4FF4C7
:101E60007A71B0FBF1F0FFF719FD0420FFF706FDD2
:101E700000221146501EFEF7F9FD11B030BD0000E2
:101E80000E48016841F00101016041680C4A1140AF
:101E90004160016821F4102121F080710160016826
:101EA00021F480210160416821F4FE0141604FF47A
:101EB0001F0181600349C0030860704700100240A1
:101EC0000000FFF808ED00E02DE9F8430026009639
:101ED00000246F4F3868C16811F0020F73D06FF0A3
:101EE0000208C0F810803868416A0091A7F118050F
:101EF0006968BDF8002011444163DFF8989199F8B2
:101F00000100401C89F8010099F8010002285AD10B
:101F100089F80160287840B101210222012819D0F6
:101F200002287DD0032847D15AE0C9F80860C9F8D3
:101F30000C6000221146584800F0F8F83868C0F8E4
:101F4000108000224FF480415448FEF71CFD89F8B0
:101F5000006093E0D9F80800401CC9F808006878D0
:101F600058B3D9F80400401EC9F804006869401C41
:101F700068616868D9F80C3003EB4003686901EBCD
:101F8000800093FBF0F06B68181A84B26868D9F887
:101F90000C3003EB40006B6901EB830190FBF1F324
:101FA00001FB1300C9F80C00A868D9F80810884292
:101FB0000AD8E86868612A7060E0D9F80400401C1B
:101FC000C9F80400D2E75AE02869A04256DBA9F814
:101FD0000240286984B2C9F80C60032028704DE0E3
:101FE000D9F80800401CC9F80800687890B1D9F801
:101FF0000400401EC9F80400286984B2A868D9F812
:10200000081088423AD8E8686861B9F802402A7036
:1020100034E005E0D9F80400401CC9F80400EBE7FF
:10202000D9F80800401CC9F80800687848B3D9F806
:102030000400401EC9F804006869401C68616868B3
:10204000D9F80C2002EB40006A6901EB820290FB98
:10205000F2F06A68101A84B26868D9F80C2002EBB2
:1020600040006A6901EB820190FBF1F201FB120072
:10207000C9F80C006869002800DB2E706C60BDE8B0
:10208000F883D9F80400401CC9F80400D4E7000024
:102090003400002008000020002C0140000C01400A
:1020A000F0B402681C4B1D4DDFF874C01D4E1E4C71
:1020B00098420AD0A04208D0B0F1804F05D0A84283
:1020C00003D0604501D0B04203D122F070024F68C6
:1020D0003A4398420AD0A04208D0B0F1804F05D0D0
:1020E000A84203D0604501D0B04205D122F440722D
:1020F000D1F80CC04CEA020202608A68C2620A6827
:102100008262984201D0A04201D109690163012194
:102110004161F0BC70470000002C01400004004009
:1021200000080040000C00400034014001238B40B7
:10213000D0F820C02CEA03030362036A02FA01F11B
:10214000194301627047D0F808C02CF47F4C42EA72
:102150000322114341EA0C0181607047826822F03A
:102160007002114341F007018160704770B4026A48
:1021700022F001020262036A4268D0F818C02CF013
:10218000700C2CF0030C0C6844EA0C0C23F00203D6
:102190008C6823430F4C104DA04201D0A84205D1BA
:1021A00023F00803CE68334323F00403A04201D098
:1021B000A84207D122F4807222F400724C692243B3
:1021C0008C6922434260C0F818C0496841630362C9
:1021D00070BC7047002C01400034014070B4026AAA
:1021E00022F010020262036A4268D0F818C02CF490
:1021F000E04C2CF4407C0C684CEA042C23F02003C7
:102200008C6843EA0413114C114DA04201D0A8423E
:1022100006D123F08003CE6843EA061323F040037F
:10222000A04201D0A84209D122F4806222F40062C7
:102230004C6942EA84028C6942EA84024260C0F836
:1022400018C049688163036270BC7047002C01406C
:102250000034014070B4026A22F480720262036AA0
:102260004268D0F81CC02CF0700C2CF0030C0C68E9
:1022700044EA0C0C23F400738C6843EA0423114CE9
:10228000114DA04201D0A84206D123F40063CE68CC
:1022900043EA062323F48063A04201D0A84209D177
:1022A00022F4805222F400524C6942EA04128C69F2
:1022B00042EA04124260C0F81CC04968C16303626C
:1022C00070BC7047002C01400034014010B4026A19
:1022D00022F480520262D0F820C04268C36923F41D
:1022E000E04323F440730C6843EA04232CF4005CBD
:1022F0008C684CEA043CA0F18044B4F5963404D0D8
:10230000A0F18044B4F59A3404D122F480424C699F
:1023100042EA84124260C36149680164C0F820C087
:1023200010BC7047036AD0F820C02CF0010CC0F834
:1023300020C0D0F818C02CF0F00C4CEA021223F0A8
:102340000A031943826101627047036A23F0100394
:102350000362D0F818C0036A2CF4704C4CEA0232C5
:1023600023F0A00343EA0111826101627047FEE796
:1023700002E008C8121F08C1002AFAD1704770474E
:10238000002001E001C1121F002AFBD170470000AC
:10239000014908607047000018000020FEF708FBA4
:1023A000FFF73FFDFFF78EFBFFF7DEFC064CFFF764
:1023B0006BFB0128FBD143F698224FF4966311463C
:1023C0002046FFF79DFBF2E700CEFFFF2DE9F0412D
:1023D00006460F46FEF74AF9041E0D4618BF0120B7
:1023E000284320F00040C0F17F6000F1E040C00FC2
:1023F0000ED0301C18BF0120384320F00040C0F13F
:102400007F6000F1E040C00F04BF0120FFF7C0FF74
:1024100020462946BDE8F0810000000001020304C7
:1024200001020304060708094824000800000020F0
:102430001C00000070230008642400081C00002019
:10244000541000008023000800A24A04000000008D
:10245000000000000000000000000000000000007C
:042460000000000078
:0400000508000131BD
:00000001FF
